:100000000C9459010C948A010C948A010C948A0175
:100010000C948A010C948A010C948A010C948A0134
:100020000C948A010C948A010C948A010C948A0124
:100030000C948A010C948A010C948A010C948A0114
:100040000C948A010C948A010C948A010C948A0104
:100050000C94530F0C948A010C948A010C94090F90
:100060000C948A010C94DF0E0C94B50E0C948A014A
:100070000C948A010C948A010C948A010C948A01D4
:100080000C948A010C948A010C948A010C948A01C4
:100090000C948A010C948A010C948A010C948A01B4
:1000A0000C948A010C948A010C948A010C948A01A4
:1000B0000C948A010C948A010C948A010C948A0194
:1000C0000C948A010C948A010C948A010C948B0E76
:1000D0000C94610E0C948A010C94370E0C940D0E46
:1000E0000C948A0105A84CCDB2D44EB93836A90279
:1000F0000C50B9918688083CA6AAAA2ABE00000026
:10010000803F0C947F030C9439020C940C040C94E3
:1001100032040C94BA120C94AB030C94D0010C94DE
:10012000A1030C9447020C9444040C94A5030C9472
:100130005E030C9402040C9425020C9458040C9455
:1001400067040C944E040C9499040C9416020C94BD
:1001500085040C9407040C9478030C949D030C9470
:1001600093030C943A040C948F040C9497030C940E
:100170002A040C9489030C9485030C9493020C9428
:100180007C030C947B040C9470030C9416040C9464
:1001900071040C948F030C9474030C9420040C943D
:1001A000E0020C94AF030C945903000021002400DA
:1001B00027002A002D003000330001010000040157
:1001C00007010A0100002200250028002B002E0054
:1001D0003100340002010000050108010B01050592
:1001E0000505070508080808020202020A0A0808AD
:1001F00004040404010101010101010103030303DB
:1002000003030303040707070C0C0C0C0C0C0C0C69
:100210000202020206060606060606060B0B0B0B7A
:100220000B0B0B0B0102102020080810204010209F
:1002300040800201020108040201010204081020AA
:1002400040808040201008040201800402018040A8
:100250002010080402010804020101020408102011
:100260004080010204081020408000000A0B0209AF
:100270000C0D0E0807030401000000000000000040
:10028000000000000000000000000000000000006E
:10029000000000000000121110000000000000002B
:1002A000000000000000000000000000000000004E
:1002B000BA1211241FBECFEFD1E2DEBFCDBF00E0E6
:1002C0000CBF12E0A0E0B2E0EAE0F4E300E00BBF14
:1002D00002C007900D92AC33B107D9F724E0ACE32C
:1002E000B2E001C01D92AA39B207E1F711E0C9E5F9
:1002F000D1E000E006C021970109802FFE010E9495
:10030000F219C835D10780E00807A9F70E94331316
:100310000C94031A0C940000CF93DF93EC019A0124
:10032000AB01E889F98982E08083211581EE3807E5
:100330004105510581F160E079E08DE390E00E9494
:10034000B119215031094109510956954795379501
:100350002795EC85FD851082EE85FF852083188E1C
:10036000EC89FD8986E08083EA89FB898081806150
:100370008083EA89FB89808188608083EA89FB89A0
:10038000808180688083EA89FB8980818F7D80837A
:10039000DF91CF910895E889F989108220E1D9CFC2
:1003A000AF92BF92CF92DF92EF92FF920F931F9383
:1003B000CF93DF936C017B018B01040F151FEB01C1
:1003C0005E01AE18BF08C017D10759F06991D60178
:1003D000ED91FC910190F081E02DC6011995892BDA
:1003E00079F7C501DF91CF911F910F91FF90EF90A9
:1003F000DF90CF90BF90AF900895FC01A089B189A4
:100400008C91A689B78982FD0FC09C91818D8F5FE9
:100410008F73228D821749F0A18DAE0FBF2FB11DB2
:100420005D969C93818F08958C910895FC01538D66
:10043000448D252F30E0842F90E0821B930B5417BE
:1004400010F0CF96089501970895FC01918D828D4B
:10045000981761F0A28DAE0FBF2FB11D5D968C91E4
:10046000928D9F5F9F73928F90E008958FEF9FEF23
:100470000895FC01918D828D981731F0828DE80FDF
:10048000F11D858D90E008958FEF9FEF0895FC0199
:10049000918D228D892F90E0805C9F4F821B910966
:1004A0008F739927089583EC92E00E94470221E020
:1004B000892B09F420E0822F089580E693E00E94C2
:1004C000470221E0892B09F420E0822F08958DEF67
:1004D00093E00E94470221E0892B09F420E0822F5B
:1004E0000895FC01A48DA80FB92FB11DA35ABF4FC9
:1004F0002C91848D90E001968F739927848FA68923
:10050000B7892C93A089B1898C91837080648C9376
:10051000938D848D981306C00288F389E02D808125
:100520008F7D80830895EF92FF920F931F93CF9357
:10053000DF93EC0181E0888F9B8D8C8D98131AC01E
:10054000E889F989808185FF15C09FB7F894EE8905
:10055000FF896083E889F989808183708064808362
:100560009FBF81E090E0DF91CF911F910F91FF90AD
:10057000EF900895F62E0B8D10E00F5F1F4F0F7355
:100580001127E02E8C8D8E110CC00FB607FCFACF10
:10059000E889F989808185FFF5CFCE010E9471023B
:1005A000F1CFEB8DEC0FFD2FF11DE35AFF4FF082E1
:1005B0009FB7F8940B8FEA89FB8980818062CFCF47
:1005C000CF93DF93EC01888D8823B9F0AA89BB898A
:1005D000E889F9898C9185FD03C0808186FD0DC075
:1005E0000FB607FCF7CF8C9185FFF2CF808185FF96
:1005F000EDCFCE010E947102E9CFDF91CF91089536
:1006000080E090E0892B29F00E94670281110E940E
:10061000000080E090E0892B49F080E090E0892B99
:1006200029F00E94000081110E94000080E090E00B
:10063000892B29F00E945D0281110E94000080E058
:1006400090E0892B29F00E94530281110C94000044
:100650000895282F30E0F901E659FD4F9491F901F2
:10066000EC5DFD4F449122523E4FF901249122232B
:1006700009F435C0992311F191509231F8F4E92F22
:10068000F0E08827E95BFC4F8F4F0C94F219780358
:100690007C035903700374035E037F03850389039E
:1006A0008F03930397039D03A1035E03A503AB038D
:1006B000AF03809180008F7780938000E22FF0E07D
:1006C000EE0FFF1FEC53FE4FA591B4918FB7F89436
:1006D000EC91611148C040954E234C938FBF089513
:1006E000809180008F7DE8CF80918000877FE4CF6C
:1006F00084B58F7784BDE2CF84B58F7DFBCF8091A9
:10070000B0008F778093B000D9CF8091B0008F7DFB
:10071000F9CF809190008F7780939000CFCF809118
:1007200090008F7DF9CF80919000877FF5CF8091E9
:10073000A0008F778093A000C1CF8091A0008F7D13
:10074000F9CF8091A000877FF5CF809120018F772E
:1007500080932001B3CF809120018F7DF9CF8091CC
:100760002001877FF5CF4E2BB8CF582F282F30E0B0
:10077000F901EC5DFD4F4491F901E252FE4F849185
:10078000882399F090E0880F991FFC01E655FE4FF1
:10079000A591B491FC01EC53FE4F859194918FB7D4
:1007A000F894EC91E42BEC938FBF6115710521F463
:1007B00060E0852F0C9429036F3F710511F461E00F
:1007C000F8CFF901E659FD4FE491E150E23108F02C
:1007D000B0C0F0E08827E051FC4F8F4F0C94F21925
:1007E000020407040C041604200499042A043204A9
:1007F0003A0444044E0458046704710499047B04C9
:1008000085048F0484B5806884BD67BD089584B570
:10081000806284BD68BD0895809180008068809367
:100820008000709389006093880008958091800013
:1008300080628093800070938B0060938A0008959B
:100840008091800088608093800070938D00609319
:100850008C0008958091B00080688093B000609310
:10086000B30008958091B00080628093B0006093DF
:10087000B4000895809190008068809390007093F8
:100880009900609398000895809190008062809311
:10089000900070939B0060939A000895809190005F
:1008A00088608093900070939D0060939C000895F1
:1008B0008091A00080688093A0008091A0008F7B31
:1008C0008093A0007093A9006093A8000895809180
:1008D000A00080628093A0007093AB006093AA0098
:1008E00008958091A00088608093A0007093AD006F
:1008F0006093AC000895809120018068809320016E
:1009000070932901609328010895809120018062ED
:100910008093200170932B0160932A0108958091A8
:10092000200188608093200170932D0160932C0139
:100930000895603871050CF042CF3ACF3FB7F89474
:100940008091750290917602A0917702B091780221
:1009500026B5A89B05C02F3F19F00196A11DB11D1A
:100960003FBFBA2FA92F982F8827BC01CD01620F56
:10097000711D811D911D42E0660F771F881F991F11
:100980004A95D1F708952091B0023091B1022F5FBE
:100990003F4F3093B1022093B0028217930774F453
:1009A0008091B6029091B702680F791F7093B702D9
:1009B0006093B6021092B1021092B00208958F9225
:1009C0009F92AF92BF92CF92DF92EF92FF92CF931E
:1009D000DF930097B9F1EC01BC01990F880B990BDB
:1009E0000E94FF172DEC3CEC4CE45EE30E94F318F0
:1009F0006B017C016091B6027091B702072E000C6A
:100A0000880B990B0E94FF174B015C0120E030E03E
:100A100040E05FE3C701B601D7FF11C00E94DE16B8
:100A2000A50194010E945517DF91CF91FF90EF909F
:100A3000DF90CF90BF90AF909F908F9008950E94CD
:100A4000DF16EECF60E070E0CB01EECFCF93DF9307
:100A5000EC018F3F910509F08CF4C1308FEFD8077E
:100A600084F01C161D067CF4BE0186E00E94B503CE
:100A700060E085E0DF91CF910C942903CFEFD0E0C7
:100A8000F3CFC1E0DFEF60E086E00E942903662734
:100A900077276C1B7D0B85E0DF91CF910C94B5031C
:100AA000CF93DF93EC018F3F910509F0FCF4C13047
:100AB0008FEFD80764F0D7FD0CC060E088E00E949B
:100AC0002903BE0187E0DF91CF910C94B503C1E00B
:100AD000DFEF662777276C1B7D0B88E00E94B5034C
:100AE00060E087E0DF91CF910C942903CFEFD0E055
:100AF000E4CFCF93DF93EC018F3F910509F0FCF435
:100B0000C1308FEFD80764F0D7FD0CC060E08AE0F9
:100B10000E942903BE0189E0DF91CF910C94B503B7
:100B2000C1E0DFEF662777276C1B7D0B8AE00E9410
:100B3000B50360E089E0DF91CF910C942903CFEFFA
:100B4000D0E0E4CFCF93DF93EC018F3F910509F024
:100B50008CF4C1308FEFD80784F01C161D067CF48E
:100B6000BE018CE20E94B50360E082E0DF91CF918C
:100B70000C942903CFEFD0E0F3CFC1E0DFEF60E0CA
:100B80008CE20E942903662777276C1B7D0B82E08D
:100B9000DF91CF910C94B503FB0101900020E9F7A0
:100BA0003197AF01461B570B0C94D0014F925F92C7
:100BB0006F927F928F929F92AF92BF92CF92DF926D
:100BC000EF92FF92CF93DF93CDB7DEB72C970FB69E
:100BD000F894DEBF0FBECDBF6B017C0160910102B6
:100BE00070910202603385E7780709F065C11092C1
:100BF00064021092650210926602109267021092CF
:100C000060021092610210926202109263021092CE
:100C100058021092590210925A0210925B021092DE
:100C20005C0210925D0210925E0210925F0220E060
:100C300030E0A901C701B6010E944B17882309F4CF
:100C400029C34090640250906502609066027090E3
:100C5000670280905C0290905D02A0905E02B0906E
:100C60005F028091580290915902A0915A02B0916E
:100C70005B0289839A83AB83BC83809160029091ED
:100C80006102A0916202B09163028D839E83AF8363
:100C9000B8878091BA029091BB028230910509F425
:100CA000AFC20CF0CFC0009709F442C2019709F41B
:100CB0007CC28091640290916502A0916602B0911D
:100CC000670289839A83AB83BC8340906002509013
:100CD00061026090620270906302C0905802D090EE
:100CE0005902E0905A02F0905B0280905C02909072
:100CF0005D02A0905E02B0905F0220E030E0A901AA
:100D0000C501B4010E944B1787FF04C0B7FAB09425
:100D1000B7F8B09420E030E0A901C701B6010E9405
:100D20004B1787FF04C0F7FAF094F7F8F09420E02F
:100D300030E0A901C301B2010E944B1787FF04C034
:100D400077FA709477F8709420E030E0A901698117
:100D50007A818B819C810E944B1787FF09C0898112
:100D60009A81AB81BC81B05889839A83AB83BC8361
:100D70002FE632E143E85AE3C501B4010E94EE18C0
:100D8000181644F08FE6882E82E1982E83E8A82E6C
:100D90008AE3B82EA5019401C701B6010E94EE189E
:100DA000181614F075016401A7019601C301B20180
:100DB0000E94EE18181614F026013701A3019201C3
:100DC00069817A818B819C810E94EE18181624F02B
:100DD00049825A826B827C8229813A814B815C8173
:100DE00060E070E08EE793E40E9455170E94C717F9
:100DF00070936F0260936E022091B6023091B70239
:100E00006217730724F47093B7026093B60281E00F
:100E100090E090936902809368022C960FB6F89444
:100E2000DEBF0FBECDBFDF91CF91FF90EF90DF907F
:100E3000CF90BF90AF909F908F907F906F905F907A
:100E40004F9008958330910509F401C2049709F089
:100E500030CFA7019601C701B6010E94DF16A50198
:100E600094010E94DF1660935C0270935D02809390
:100E70005E0290935F0229813A814B815C81C701B8
:100E8000B6010E94DF166093580270935902809356
:100E90005A0290935B022D813E814F815885C70194
:100EA000B6010E94DF166093600270936102809326
:100EB000620290936302FDCE8091B2029091B302E0
:100EC0002091790230917A02821B930B681B790B77
:100ED000072E000C880B990B0E94FF1720E030E0D2
:100EE00040E251E40E94551720E030E044E352E430
:100EF0000E94DF1625E33AEF4EE85CE30E94F31808
:100F00002B013C010E9450179B01AC010E94DF168F
:100F100069837A838B839C838090440290904502FE
:100F2000A0904602B0904702C301B2010E9460192E
:100F30009B01AC010E94DF162B013C01A50194012D
:100F40000E94DE166D837E838F839887C301B20172
:100F50009058A50194010E94DE162B013C01698185
:100F60007A818B819C819058A50194010E94DE16A4
:100F700069877A878B879C87A501940169817A812B
:100F80008B819C810E94DE1620E030E048EC52E428
:100F90000E94F3184B015C0120E030E0A9010E949F
:100FA000EE1820E030E040E05FE387FDADC0C50112
:100FB000B4010E94DF160E94C71724E630E040E02B
:100FC00050E00E94D319CA01B9010E94FF17609333
:100FD00058027093590280935A0290935B0220E06A
:100FE00030E048EC52E4C301B2010E94F3184B0117
:100FF0005C0120E030E0A9010E94EE1820E030E022
:1010000040E05FE387FD85C0C501B4010E94DF16A3
:101010000E94C71724E630E040E050E00E94D31958
:10102000CA01B9010E94FF1760935C0270935D02D0
:1010300080935E0290935F0220E030E048EC52E43F
:1010400069857A858B859C850E94F3184B015C012C
:1010500020E030E0A9010E94EE1820E030E040E0FE
:101060005FE387FD5BC0C501B4010E94DF160E94EB
:10107000C71724E630E040E050E00E94D319CA01CF
:10108000B9010E94FF176093600270936102809320
:1010900062029093630220E030E048EC52E46D81FC
:1010A0007E818F8198850E94F3184B015C0120E0BE
:1010B00030E0A9010E94EE1820E030E040E05FE35C
:1010C00087FD31C0C501B4010E94DF160E94C71719
:1010D00024E630E040E050E00E94D319CA01B90193
:1010E0000E94FF176093640270936502809366020A
:1010F0009093670220E030E0A901C701B6010E9489
:101100004B1781119ECDD5CDC501B4010E94DE16CD
:1011100052CFC501B4010E94DE167ACFC501B401D9
:101120000E94DE16A4CFC501B4010E94DE16CECF08
:10113000A7019601C501B4010E94DE1660935C020E
:1011400070935D0280935E0290935F02A701960107
:1011500069817A818B819C810E94DE16609358029E
:101160007093590280935A0290935B02A7019601F3
:101170006D817E818F8198850E94DE16609360026A
:10118000709361028093620290936302A7019601BB
:10119000C301B2010E94DE1660936402709365027F
:1011A000809366029093670284CD29813A814B81B6
:1011B0005C81C701B6010E94DF16609358027093EC
:1011C000590280935A0290935B022D813E814F8198
:1011D0005885C701B6010E94DF16609360027093C4
:1011E00061028093620290936302A7019601C70196
:1011F000B6010E94DF16A30192010E94DF16CCCF38
:10120000A5019401C701B6010E94DF1660935C023C
:1012100070935D0280935E0290935F02A701960136
:10122000C701B6010E94DF162D813E814F8158858E
:101230000E94DF16609360027093610280936202E5
:1012400090936302A3019201C701B601D6CFA50115
:101250009401C701B6010E94DF1660935C0270938F
:101260005D0280935E0290935F02A7019601C70121
:10127000B6010E94DF1629813A814B815C810E9470
:10128000DF16609358027093590280935A0290932C
:101290005B02D8CF19821A821B821C82812C912C6E
:1012A000540175016401240135014ECDCF92DF92C6
:1012B000EF92FF926B017C011092C2028091C002FA
:1012C0009091C1028033954799F42091BC023091EE
:1012D000BD024091BE025091BF02C7010E944B1750
:1012E000811106C08091BA029091BB02892B89F1CD
:1012F00080910102909102028033954761F483E668
:1013000090E09093B9028093B80285E090E09093CA
:10131000B7028093B60280E395E79093C102809371
:10132000C0021092BB021092BA02C092BC02D092CC
:10133000BD02E092BE02F092BF021092B102109282
:10134000B002C701B601FF90EF90DF90CF900C94F0
:10135000D605FF90EF90DF90CF900895CF92DF9267
:10136000EF92FF920F931F93CF93DF93EC018B01CA
:1013700069017A0180910102909102028C179D0708
:1013800099F48091B8029091B9028617970761F499
:10139000609144027091450280914602909147020B
:1013A0000E944B178823D1F11093B9020093B80221
:1013B0008091B6029091B702892B31F485E090E0DC
:1013C0009093B7028093B6028091B2029091B302DB
:1013D00090937A0280937902C0924402D09245029F
:1013E000E0924602F0924702D0930202C0930102BB
:1013F0001092B1021092B0026091BC027091BD02D5
:101400008091BE029091BF02DF91CF911F910F9109
:10141000FF90EF90DF90CF900C94D605DF91CF91A5
:101420001F910F91FF90EF90DF90CF900895209142
:10143000C202211123C02091480230914902309309
:1014400043022093420220914A0230914B02309392
:1014500041022093400220914C0230914D02309382
:101460003F0220933E0220914E0230914F02309372
:101470003D0220933C0221E02093C2021092B90267
:101480001092B80290936D0280936C02892B59F5EB
:101490001092B7021092B6021092440210924502C6
:1014A000109246021092470280E395E79093020261
:1014B000809301021092BC021092BD021092BE02F3
:1014C0001092BF021092BB021092BA021092C10297
:1014D0001092C0021092B5021092B40260E070E067
:1014E000CB010C94D60508952091AE023091AF0245
:1014F000A90140E15402412D550B112492E040FD19
:1015000090E0A901550F440B550F542F441F40FD87
:101510002EC044E0942B48E037FD40E0942BA90115
:1015200048E05402412D550B112440FD22C040E1FA
:10153000942B40E222FD40E0942B23FD1CC020E4CC
:10154000922B9093AD029A3209F432C30CF053C03F
:10155000903109F456C154F5943009F4E8C16CF4A3
:10156000992309F495C0923009F4A4C0089540E08D
:10157000D1CF40E0DDCF20E0E3CF9A3009F4DBC2E9
:101580009C3009F430C2983009F093C08091AC02CD
:10159000811185C26091000270E020E030E0A90175
:1015A0008CE79CEF0E94AE0983E10895903209F424
:1015B00029C33CF4923109F4C8C0943109F46CC1D8
:1015C0000895943209F4F0C1983209F495C2923228
:1015D00009F06FC08091AC028111A9C06091000236
:1015E00070E020E030E040E85FEB90E080E00E94B7
:1015F000AE0983E00895943409F4B7C12CF5923311
:1016000009F4E0C03CF49C3209F42AC2903309F496
:1016100024C10895903409F4EAC2923409F468C0F0
:10162000943309F046C08091AC02811172C160917F
:10163000000270E020E030E040E85FEB86E495E0F7
:101640000E94AE098CE008959C3409F4EAC13CF490
:10165000983409F432C29A3409F48BC20895923551
:1016600009F491C0943509F435C1903511F5809194
:10167000AC028111E4C06091000270E020E030E033
:1016800040E85FE384E893E00E94AE0988E00895B3
:1016900082E090E00E94170A8091AC02813041F410
:1016A0008091B6029091B702892B11F41092AC028E
:1016B00080E008958091AC0281110CC0609100021D
:1016C00070E020E030E0A90190E080E00E94AE09E7
:1016D00081E008958091B6029091B702892B29F09C
:1016E00082E090E00E94170AF3CF1092AC02F0CF94
:1016F0008091AC0281110DC06091000270E020E089
:1017000030E040E85FE390E080E00E94AE0982E0D4
:1017100008958091B6029091B702892B29F082E05A
:1017200090E00E94170AF3CF1092AC02F0CF8091A4
:10173000B6029091B702892B29F082E090E00E94D6
:10174000170A57CF1092AC0254CF8091AC0281118E
:101750000CC06091000270E020E030E0A90182EC52
:1017600091E00E94AE0984E008958091B6029091C4
:10177000B702892B29F082E090E00E94170AF3CF8C
:101780001092AC02F0CF8091AC0281110DC060913B
:10179000000270E020E030E040E85FE382EC91E09E
:1017A0000E94AE0985E008958091B6029091B7023B
:1017B000892B29F082E090E00E94170AF3CF109263
:1017C000AC02F0CF8091AC0281110DC0609100029B
:1017D00070E020E030E040E85FEB82EC91E00E94B6
:1017E000AE0986E008958091B6029091B702892BE8
:1017F00029F082E090E00E94170AF3CF1092AC0229
:10180000F0CF8091AC0281110CC06091000270E0B9
:1018100020E030E0A90184E893E00E94AE0987E06F
:1018200008958091B6029091B702892B29F082E049
:1018300090E00E94170AF3CF1092AC02F0CF809193
:10184000B6029091B702892B29F082E090E00E94C5
:10185000170A1CCF1092AC0219CF8091AC028111F3
:101860000DC06091000270E020E030E040E85FEBE6
:1018700084E893E00E94AE0989E008958091B60261
:101880009091B702892B29F082E090E00E94170A1C
:10189000F3CF1092AC02F0CF8091AC0281110CC05A
:1018A0006091000270E020E030E0A90186E495E05C
:1018B0000E94AE098AE008958091B6029091B70225
:1018C000892B29F082E090E00E94170AF3CF109252
:1018D000AC02F0CF8091AC0281110DC0609100028A
:1018E00070E020E030E040E85FE386E495E00E94AD
:1018F000AE098BE008958091B6029091B702892BD2
:1019000029F082E090E00E94170AF3CF1092AC0217
:10191000F0CF8091B6029091B702892B29F082E036
:1019200090E00E94170A8ECE1092AC028BCE80916E
:10193000AC0281110CC06091000270E020E030E048
:10194000A90188E097E00E94AE098DE0089580919A
:10195000B6029091B702892B29F082E090E00E94B4
:10196000170AF3CF1092AC02F0CF8091AC02811134
:101970000DC06091000270E020E030E040E85FE3DD
:1019800088E097E00E94AE098EE008958091B6024B
:101990009091B702892B29F082E090E00E94170A0B
:1019A000F3CF1092AC02F0CF8091AC0281110DC048
:1019B0006091000270E020E030E040E85FEB88E0FA
:1019C00097E00E94AE098FE008958091B602909151
:1019D000B702892B29F082E090E00E94170AF3CF2A
:1019E0001092AC02F0CF8091AC0281110CC06091DA
:1019F000000270E020E030E0A9018AEB9AEF0E943B
:101A0000AE0980E108958091B6029091B702892BCA
:101A100029F082E090E00E94170AF3CF1092AC0206
:101A2000F0CF8091AC0281110DC06091000270E096
:101A300020E030E040E85FE38AEB9AEF0E94AE09D5
:101A400081E108958091B6029091B702892B29F027
:101A500082E090E00E94170AF3CF1092AC02F0CF20
:101A60008091AC0281110DC06091000270E020E015
:101A700030E040E85FEB8AEB9AEF0E94AE0982E12A
:101A800008958091B6029091B702892B29F082E0E7
:101A900090E00E94170AF3CF1092AC02F0CF809131
:101AA000B6029091B702892B29F082E090E00E9463
:101AB000170A7ACD1092AC0277CD8091AC028111D9
:101AC0000DC06091000270E020E030E040E85FE38C
:101AD0008CE79CEF0E94AE0984E108958091B602E4
:101AE0009091B702892B29F082E090E00E94170ABA
:101AF000F3CF1092AC02F0CF8091AC0281110DC0F7
:101B00006091000270E020E030E040E85FEB8CE79D
:101B10009CEF0E94AE0985E108958091B6029091F4
:101B2000B702892B29F082E090E00E94170AF3CFD8
:101B30001092AC02F0CF8091AC0281110CC0609188
:101B4000000270E020E030E0A9018EE39EEF0E94E9
:101B5000AE0986E108958091B6029091B702892B73
:101B600029F082E090E00E94170AF3CF1092AC02B5
:101B7000F0CF8091AC0281110DC06091000270E045
:101B800020E030E040E85FE38EE39EEF0E94AE0984
:101B900087E108958091B6029091B702892B29F0D0
:101BA00082E090E00E94170AF3CF1092AC02F0CFCF
:101BB0008091AC0281110DC06091000270E020E0C4
:101BC00030E040E85FEB8EE39EEF0E94AE0988E1D3
:101BD00008958091B6029091B702892B29F082E096
:101BE00090E00E94170AF3CF1092AC02F0CF81E090
:101BF0008093AC0260E070E080E89FE30E945609A9
:101C000089E1089581E08093AC0260E070E080E8B3
:101C10009FEB0E9456098AE108951F920F920FB61A
:101C20000F9211240BB60F922F933F934F935F9314
:101C30006F937F938F939F93AF93BF93EF93FF9394
:101C400083EC92E00E947102FF91EF91BF91AF91FE
:101C50009F918F917F916F915F914F913F912F91C4
:101C60000F900BBE0F900FBE0F901F9018951F92F4
:101C70000F920FB60F9211240BB60F922F933F9332
:101C80004F935F936F937F938F939F93AF93BF9384
:101C9000EF93FF9383EC92E00E94FD01FF91EF919F
:101CA000BF91AF919F918F917F916F915F914F9174
:101CB0003F912F910F900BBE0F900FBE0F901F9072
:101CC00018951F920F920FB60F9211240BB60F9218
:101CD0002F933F934F935F936F937F938F939F9334
:101CE000AF93BF93EF93FF9380E693E00E9471025E
:101CF000FF91EF91BF91AF919F918F917F916F91E4
:101D00005F914F913F912F910F900BBE0F900FBE9F
:101D10000F901F9018951F920F920FB60F921124DB
:101D20000BB60F922F933F934F935F936F937F93D5
:101D30008F939F93AF93BF93EF93FF9380E693E0CE
:101D40000E94FD01FF91EF91BF91AF919F918F9103
:101D50007F916F915F914F913F912F910F900BBEAB
:101D60000F900FBE0F901F9018951F920F920FB6F5
:101D70000F9211240BB60F922F933F934F935F93C3
:101D80006F937F938F939F93AF93BF93EF93FF9343
:101D90008DEF93E00E947102FF91EF91BF91AF919F
:101DA0009F918F917F916F915F914F913F912F9173
:101DB0000F900BBE0F900FBE0F901F9018951F92A3
:101DC0000F920FB60F9211240BB60F922F933F93E1
:101DD0004F935F936F937F938F939F93AF93BF9333
:101DE000EF93FF938DEF93E00E94FD01FF91EF9140
:101DF000BF91AF919F918F917F916F915F914F9123
:101E00003F912F910F900BBE0F900FBE0F901F9020
:101E100018951F920F920FB60F9211242F933F9394
:101E20008F939F93AF93BF938091710290917202B1
:101E3000A0917302B09174023091700223E0230FDD
:101E40002D3758F50196A11DB11D20937002809386
:101E5000710290937202A0937302B0937402809106
:101E6000750290917602A0917702B0917802019666
:101E7000A11DB11D8093750290937602A093770205
:101E8000B0937802BF91AF919F918F913F912F9125
:101E90000F900FBE0F901F90189526E8230F029603
:101EA000A11DB11DD2CF1F920F920FB60F92112418
:101EB0000BB60F922F923F924F925F926F927F924A
:101EC0008F929F92AF92BF92CF92DF92EF92FF924A
:101ED0000F931F932F933F934F935F936F937F9332
:101EE0008F939F93AF93BF93CF93DF93EF93FF9322
:101EF00086E09FEF90938500809384001092B30258
:101F00001092B2022091B4023091B5022230310514
:101F1000E4F08091C0029091C102AC0197FF04C02F
:101F200044275527481B590B443051050CF085C1F7
:101F3000C90101969093B5028093B402253F3140C8
:101F400024F090E080E00E94170A8091B8029091FE
:101F5000B9026091B6027091B702181619060CF01A
:101F6000ADC18617970721F1681779070CF0A1C159
:101F700080916E0290916F0268177907CCF4072E5A
:101F8000000C880B990B0E94FF172DEC3CEC4CECDD
:101F90005DEB0E94F31820E030E040EA51E40E943B
:101FA000DF160E94C717CB0163E070E00E94C304F4
:101FB000C091B202D091B30280916A0290916B02FB
:101FC0008C179D0709F48BC020E030E0A9016091D7
:101FD00044027091450280914602909147020E940E
:101FE0004B17811178C02090B6023090B7022114AF
:101FF000310409F470C00091C0021091C102003395
:1020000025E712070CF067C0C090BC02D090BD025B
:10201000E090BE02F090BF0220E030E0A901C701CD
:10202000B6010E944B17882309F48BC280910102EC
:10203000909102028033954709F007C220E030E01A
:10204000A901C701B6010E94EE18181634F4C801A0
:10205000875C9109C817D90784F420E030E0A90112
:10206000C701B6010E944B1787FF68C2C801895398
:102070009F4F8C179D070CF461C28091B402909120
:10208000B502039744F528014C1A5D0A57FE03C0B8
:102090005194419451088AE0481651040CF084C1CF
:1020A0001092B7021092B6021092B9021092B802C2
:1020B0001092BC021092BD021092BE021092BF029A
:1020C00082E090E09093B5028093B40260E070E00B
:1020D000CB010E94D605D0936B02C0936A02809117
:1020E000680290916902892B09F432C16091B602AD
:1020F0007091B702072E000C880B990B0E94FF17F6
:102100004B015C01209164023091650240916602AE
:10211000509167020E94F3186B017C0120E030E0CF
:10212000A9010E944B1720E030E040E05FE387FF09
:102130000DC2C701B6010E94DE160E94C717EB014F
:1021400020916002309161024091620250916302DD
:10215000C501B4010E94F3186B017C0120E030E05E
:10216000A9010E944B1720E030E040E05FE387FFC9
:10217000F2C1C701B6010E94DE160E94C7178B018B
:1021800020915C0230915D0240915E0250915F02AD
:10219000C501B4010E94F3186B017C0120E030E01E
:1021A000A9010E944B1720E030E040E05FE387FF89
:1021B000D7C1C701B6010E94DE160E94C7177B0176
:1021C000209158023091590240915A0250915B027D
:1021D000C501B4010E94F3184B015C0120E030E01E
:1021E000A9010E944B1720E030E040E05FE387FF49
:1021F000BCC1C501B4010E94DE160E94C7176B0165
:10220000CB010E94A205C7010E947905C8010E9466
:102210005005CE010E942605D0924902C092480284
:10222000F0924B02E0924A0210934D0200934C024E
:10223000D0934F02C0934E028BC02B3F31054CF11F
:1022400025E030E03093B9022093B8023093B70212
:102250002093B6022BEF30E03093B5022093B40206
:1022600097FF22C080E090E0A0E8BFEB8093BC0223
:102270009093BD02A093BE02B093BF026091BC02D6
:102280007091BD028091BE029091BF020E94D6055E
:102290005CCE25E030E03093B9022093B802309351
:1022A000B7022093B602DCCF80E090E0A0E8BFE365
:1022B000DDCF6FEF7FEF8FE090E078CE1616170638
:1022C0003CF46FEF7FEF80916C0290916D026ECEC7
:1022D0008091B4029091B5020297F4F410924402F6
:1022E0001092450210924602109247021092BC02D0
:1022F0001092BD021092BE021092BF021092BB0259
:102300001092BA0280E395E7909302028093010253
:102310001092C1021092C0028091B0029091B1025D
:1023200001969093B1028093B00284369105ACF58A
:1023300090E080E00E94A20590E080E00E94790594
:1023400090E080E00E94500590E080E00E94260529
:10235000FF91EF91DF91CF91BF91AF919F918F91BD
:102360007F916F915F914F913F912F911F910F91AD
:10237000FF90EF90DF90CF90BF90AF909F908F90A5
:102380007F906F905F904F903F902F900F900BBE7B
:102390000F900FBE0F901F90189584E690E09093D9
:1023A000B1028093B002C4CFB101330C880B990BFA
:1023B0000E94FF174B015C01A70196010E94F318D0
:1023C00020E030E048E453E40E9455176B017C01A3
:1023D000052C000C6608770820E030E0A901C01742
:1023E000D107DCF40E94EE1887FF04C0F7FAF094DE
:1023F000F7F8F094C301B2010E94FF17A7019601FC
:102400000E94F31820E030E040EC50E40E94DF1618
:10241000A50194010E9455175CCE0E94EE1887FF1B
:1024200004C0F7FAF094F7F8F094C301B2010E94E7
:10243000FF17A70196010E94F31820E030E040EC5E
:1024400050E40E94DF169058E3CF20E030E0A9016D
:10245000C701B6010E94EE1818168CF5BE010D2EAC
:10246000000C880B990B0E94FF174B015C01B8010F
:10247000012E000C880B990B0E94FF172B013C01C9
:10248000B101032C000C880B990B0E94FF17A701C8
:1024900096010E94F3189B01AC01C301B2010E9496
:1024A000DE1620E030E048EC52E40E94DE169B018C
:1024B000AC01C501B4010E94EE181816CCF120E061
:1024C00030E0A901C701B6010E944B1787FF36C053
:1024D000BE010D2E000C880B990B0E94FF174B01BB
:1024E0005C01B801012E000C880B990B0E94FF17AC
:1024F0002B013C01B101330C880B990B0E94FF1793
:10250000A70196010E94F3189B01AC01C301B2011F
:102510000E94DE1620E030E048EC52E40E94DF1614
:102520009B01AC01C501B4010E944B1787FF06C097
:10253000C8018C1B9D0B0E94DF04CBCDC701B601E7
:10254000C8CD8091790290917A02F3CFC701B6018C
:102550000E94DF16F2CDC701B6010E94DF160DCE34
:10256000C701B6010E94DF1628CEC501B4010E9442
:10257000DF1643CEE3ECF2E01382128248EE53E022
:1025800060E070E0448355836683778387E092E060
:102590009183808325E331E03587248724E331E08C
:1025A0003787268720E331E0318B208B21E331E030
:1025B000338B228B22E331E0358B248B26E331E011
:1025C000378B268B118E128E138E148EE0E6F3E07D
:1025D0001382128244835583668377839183808339
:1025E00025ED30E03587248724ED30E037872687D6
:1025F00020ED30E0318B208B21ED30E0338B228BCE
:1026000022ED30E0358B248B26ED30E0378B268BA6
:10261000118E128E138E148EEDEFF3E01382128260
:1026200044835583668377839183808385EC90E030
:102630009587848784EC90E09787868780EC90E08C
:10264000918B808B81EC90E0938B828B82EC90E07D
:10265000958B848B86EC90E0978B868B118E128EF7
:10266000138E148E0895CF93DF93CDB7DEB7A19765
:102670000FB6F894DEBF0FBECDBF789484B58260EC
:1026800084BD84B5816084BD85B5826085BD85B516
:10269000816085BD80916E00816080936E00109294
:1026A000810080918100826080938100809181000F
:1026B00081608093810080918000816080938000A0
:1026C0008091B10084608093B1008091B0008160FE
:1026D0008093B000809191008260809391008091FE
:1026E000910081608093910080919000816080933F
:1026F00090008091A10082608093A1008091A10050
:1027000081608093A1008091A00081608093A000EF
:10271000809121018260809321018091210181605B
:10272000809321018091200181608093200180911C
:102730007A00846080937A0080917A00826080932E
:102740007A0080917A00816080937A0080917A008B
:10275000806880937A001092C10040E052EC61E002
:1027600070E080E693E00E948C0140E855E260E072
:1027700070E08DEF93E00E948C0165E172E08DEFD7
:1027800093E00E94CC0566E372E08DEF93E00E9437
:10279000CC0540E05BE460E070E083EC92E00E94F6
:1027A0008C0161E680E693E00E949302F894109217
:1027B00080001092810010926F00809181008360F0
:1027C0008093810086E09FEF909385008093840042
:1027D00081E080936F00789482E090E00E94170A75
:1027E00020E030E0A9016091BC027091BD028091AF
:1027F000BE029091BF020E944B1781110CC08091C4
:10280000BA029091BB02892B31F48091C002909161
:10281000C102892BE9F01092BC021092BD02109205
:10282000BE021092BF021092BB021092BA02109226
:10283000C1021092C0028091B2029091B3029093B3
:102840007A028093790260E070E0CB010E94D605A5
:1028500082E090E00E94170A0E949E044B015C01F6
:10286000E8EECE2EE3E0DE2EE12CF12C0E949E0459
:10287000681979098A099B09683E734081059105A9
:10288000A8F321E0C21AD108E108F10888EE880E09
:1028900083E0981EA11CB11CC114D104E104F10411
:1028A00029F752E3852E64E1962E7AE0272E312C0B
:1028B000412C512C0E949E048B019C016093840248
:1028C00010938502809386023093870210928802CB
:1028D0001092890210928A0210928B0269E372E0D0
:1028E00080E693E00E94CC050E949E049B01AC010F
:1028F00060E070E080E090E0A0908402B0908502FB
:10290000C0908602D0908702E0908802F090890201
:1029100000918A0210918B020E94FA192F313E44D5
:1029200041055105610571058105910511F00CF016
:1029300052C083EC92E00E944702892BD1F383ECD2
:1029400092E00E942502909183028A3A21F49F5FCF
:1029500090938302C9CF9430D9F5209181023091B0
:102960008202F901E558FD4F80832F5F3F4F30937E
:102970008202209381022630310509F0B5CF809183
:102980007B0290917C029827892798279093AF0229
:102990008093AE0280917D02109292028093930206
:1029A00080917E0290E090938F0280938E028091BE
:1029B0007F0210929A0280939B028091800290E0A5
:1029C0009093970280939602109282021092810255
:1029D0001092830289CF80E693E00E94250280E670
:1029E00093E00E94250280E693E00E94250280E6A3
:1029F00093E00E9425028091AE029091AF029C016B
:102A000020E23202212D330B1124B90161707727A6
:102A100020FD03C024E620930002292F332727FD41
:102A20003A95A9014170552720FD03C0E6E9E093DE
:102A3000000285FB662460F8712C85FF80920002FD
:102A400097FDB7C02091AB022F5F253108F0AEC0D3
:102A50002093AB0296FDB3C02091AA022F5F2531CF
:102A600008F0AAC02093AA0295FDAFC02091A90248
:102A70002F5F253108F0A6C02093A90294FDABC0BA
:102A80002091A8022F5F253108F0A2C02093A80250
:102A9000672B09F0A6C02091A7022F5F253108F00F
:102AA0009DC02093A70292FDA2C02091A6022F5F95
:102AB000253108F099C02093A60291FD9EC0209177
:102AC000A5022F5F253108F095C02093A502452B64
:102AD00009F099C02091A4022F5F253108F090C021
:102AE0002093A40287FD95C02091A3022F5F25317A
:102AF00008F08CC02093A30286FD91C02091A20211
:102B00002F5F253108F088C02093A202672809F0C2
:102B10008CC02091A1022F5F253108F083C0209343
:102B2000A10284FD88C02091A0022F5F253108F00A
:102B30007FC02093A00283FD84C020919F022F5F5D
:102B4000253108F07BC020939F0282FD80C0209138
:102B50009E022F5F253108F077C020939E0281FDF1
:102B60007CC020919D022F5F253108F073C0209317
:102B70009D0280FD78C080919C028F5F853108F0B6
:102B80006FC080939C0280919A0290919B02843145
:102B900091050CF06BC0809199028F5F853108F42C
:102BA00086C090929902109298026DC09092AB02EA
:102BB00051CF1092AB024ECF9092AA0255CF1092F5
:102BC000AA0252CF9092A90259CF1092A90256CFD1
:102BD0009092A8025DCF1092A8025ACF9092A702BD
:102BE00062CF1092A7025FCF9092A60266CF10929A
:102BF000A60263CF9092A5026ACF1092A50267CF7A
:102C00009092A4026FCF1092A4026CCF9092A30274
:102C100073CF1092A30270CF9092A20277CF10923E
:102C2000A20274CF9092A1027CCF1092A10279CF20
:102C30009092A00280CF1092A0027DCF90929F022E
:102C400084CF10929F0281CF90929E0288CF1092E3
:102C50009E0285CF90929D028CCF10929D0289CFCB
:102C600090929C0290CF10929C028DCF109299026C
:102C70008C3E91050CF497CF809198028F5F85313F
:102C800098F48093980280919602909197028431F3
:102C9000910584F4809195028F5F853158F190926F
:102CA00095021092940212C090929802ECCF8093F9
:102CB000990279CF109295028C3E910594F3809100
:102CC00094028F5F853198F48093940280919202F0
:102CD000909193028431910584F4809191028F5FE9
:102CE000853160F1909291021092900212C0909200
:102CF0009402ECCF80939502D4CF109291028C3E37
:102D0000910594F3809190028F5F8531A0F48093B8
:102D1000900280918E0290918F02843191058CF403
:102D200080918D028F5F853108F445C090928D02AD
:102D300010928C0212C090929002EBCF809391027D
:102D4000D3CF10928D028C3E910594F380918C022A
:102D50008F5F853168F580938C020E94740A0E940F
:102D6000740A282F30E050E040E019A28E010F5D78
:102D70001F4FCA01B901A20191010E94B119605D02
:102D8000F80162938F01211531054105510589F73D
:102D9000309729F0BF018DEF93E00E94CC0566E3E8
:102DA00072E08DEF93E00E94CC050E94000382CD7B
:102DB00090928C02D2CF80938D02BACF5058BB270D
:102DC000AA270E94F6160C94A0180E94671838F0E3
:102DD0000E946E1820F039F49F3F19F426F40C94E9
:102DE00064180EF4E095E7FB0C945E18E92F0E943E
:102DF000C51858F3BA17620773078407950720F0C0
:102E000079F4A6F50C94E7180EF4E0950B2EBA2F82
:102E1000A02D0B01B90190010C01CA01A0011124E0
:102E2000FF27591B99F0593F50F4503E68F11A168C
:102E3000F040A22F232F342F4427585FF3CF46951D
:102E400037952795A795F0405395C9F77EF41F163F
:102E5000BA0B620B730B840BBAF09150A1F0FF0F09
:102E6000BB1F661F771F881FC2F70EC0BA0F621FF5
:102E7000731F841F48F4879577956795B795F795E5
:102E80009E3F08F0B0CF9395880F08F09927EE0F7A
:102E90009795879508950E943A1808F481E008955F
:102EA0000E947718E3950C94B1180E9469170C944E
:102EB000A0180E946E1858F00E94671840F029F47C
:102EC0005F3F29F00C945E1851110C94E8180C9493
:102ED00064180E94C51868F39923B1F3552391F340
:102EE000951B550BBB27AA2762177307840738F079
:102EF0009F5F5F4F220F331F441FAA1FA9F335D0D6
:102F00000E2E3AF0E0E832D091505040E695001C89
:102F1000CAF72BD0FE2F29D0660F771F881FBB1F43
:102F2000261737074807AB07B0E809F0BB0B802D21
:102F3000BF01FF2793585F4F3AF09E3F510578F04D
:102F40000C945E180C94E8185F3FE4F3983ED4F3B9
:102F5000869577956795B795F7959F5FC9F7880F21
:102F6000911D9695879597F90895E1E0660F771F73
:102F7000881FBB1F621773078407BA0720F0621B04
:102F8000730B840BBA0BEE1F88F7E09508950E942F
:102F9000CE176894B1110C94E81808950E94CD18CA
:102FA00088F09F5798F0B92F9927B751B0F0E1F00A
:102FB000660F771F881F991F1AF0BA95C9F714C0BA
:102FC000B13091F00E94E718B1E008950C94E71831
:102FD000672F782F8827B85F39F0B93FCCF38695F3
:102FE00077956795B395D9F73EF490958095709550
:102FF00061957F4F8F4F9F4F0895E89409C097FBCD
:103000003EF490958095709561957F4F8F4F9F4FBF
:103010009923A9F0F92F96E9BB279395F695879503
:1030200077956795B795F111F8CFFAF4BB0F11F4C6
:1030300060FF1BC06F5F7F4F8F4F9F4F16C088236D
:1030400011F096E911C0772321F09EE8872F762FA3
:1030500005C0662371F096E8862F70E060E02AF0E4
:103060009A95660F771F881FDAF7880F96958795D0
:1030700097F90895990F0008550FAA0BE0E8FEEFA5
:1030800016161706E807F907C0F012161306E4072C
:10309000F50798F0621B730B840B950B39F40A2625
:1030A00061F0232B242B252B21F408950A2609F403
:1030B000A140A6958FEF811D811D089597F99F6707
:1030C00080E870E060E008959FEF80EC08950024B0
:1030D0000A941616170618060906089500240A947D
:1030E000121613061406050608950C9464180E941F
:1030F000CD18D8F3E894E0E0BB279F57F0F02AED15
:103100003FE049EC06C0EE0FBB0F661F771F881F1C
:1031100028F0B23A62077307840728F0B25A620BAC
:10312000730B840BE3959A9572F7803830F49A9577
:10313000BB0F661F771F881FD2F790480C946A193F
:10314000092E0394000C11F4882352F0BB0F40F4B5
:10315000BF2B11F460FF04C06F5F7F4F8F4F9F4FF5
:103160000895EF93E0FF07C0A2EA2AED3FE049ECA3
:103170005FEB0E94F6160E94A0180F90039401FCCA
:103180009058E4EEF0E00C94761957FD9058440FF7
:10319000551F59F05F3F71F04795880F97FB991FB6
:1031A00061F09F3F79F08795089512161306140673
:1031B000551FF2CF4695F1DF08C016161706180600
:1031C000991FF1CF86957105610508940895E894DB
:1031D000BB2766277727CB0197F908950E943A18F5
:1031E00008F48FEF08950E9406190C94A0180E940D
:1031F000671838F00E946E1820F0952311F00C9497
:103200005E180C94641811240C94E8180E94C518D8
:1032100070F3959FC1F3950F50E0551F629FF00129
:10322000729FBB27F00DB11D639FAA27F00DB11D42
:10323000AA1F649F6627B00DA11D661F829F2227CB
:10324000B00DA11D621F739FB00DA11D621F839F52
:10325000A00D611D221F749F3327A00D611D231F28
:10326000849F600D211D822F762F6A2F11249F5776
:1032700050409AF0F1F088234AF0EE0FFF1FBB1F79
:10328000661F771F881F91505040A9F79E3F510538
:1032900080F00C945E180C94E8185F3FE4F3983EBD
:1032A000D4F3869577956795B795F795E7959F5FE2
:1032B000C1F7FE2B880F911D9695879597F9089574
:1032C0009F930E9477180F9007FCEE5F0C94B11843
:1032D0009F3F31F0915020F4879577956795B7958A
:1032E000880F911D9695879597F908959F938F93D1
:1032F0007F936F93FF93EF939B01AC010E94F318B0
:10330000EF91FF910E948A192F913F914F915F9108
:103310000C94F318DF93CF931F930F93FF92EF92C8
:10332000DF927B018C01689406C0DA2EEF010E94C7
:103330000619FE01E894A591259135914591559185
:10334000A6F3EF010E94F616FE019701A801DA9498
:1033500069F7DF90EF90FF900F911F91CF91DF9170
:103360000895A1E21A2EAA1BBB1BFD010DC0AA1FC6
:10337000BB1FEE1FFF1FA217B307E407F50720F0DE
:10338000A21BB30BE40BF50B661F771F881F991F59
:103390001A9469F760957095809590959B01AC01A2
:1033A000BD01CF010895052E97FB1EF400940E94E5
:1033B000EA1957FD07D00E94B11907FC03D04EF45B
:1033C0000C94EA1950954095309521953F4F4F4FF9
:1033D0005F4F089590958095709561957F4F8F4FC1
:1033E0009F4F0895EE0FFF1F881F8BBF0790F69128
:1033F000E02D19942A193B094C095D096E097F09D2
:0A340000800B910B0895F894FFCFA4
:10340A00323075000000009302D0011602E0024734
:10341A00022502390257656C636F6D6520746F204F
:10342A00424B442D50686F656E69782065636F73EF
:0C343A00797374656D000D0A007A0000C3
:00000001FF
