:020000040000FA
:100000000C9459010C948A010C948A010C948A0175
:100010000C948A010C948A010C948A010C948A0134
:100020000C948A010C948A010C948A010C948A0124
:100030000C948A010C948A010C948A010C948A0114
:100040000C948A010C948A010C948A010C948A0104
:100050000C94530F0C948A010C948A010C94090F90
:100060000C948A010C94DF0E0C94B50E0C948A014A
:100070000C948A010C948A010C948A010C948A01D4
:100080000C948A010C948A010C948A010C948A01C4
:100090000C948A010C948A010C948A010C948A01B4
:1000A0000C948A010C948A010C948A010C948A01A4
:1000B0000C948A010C948A010C948A010C948A0194
:1000C0000C948A010C948A010C948A010C948B0E76
:1000D0000C94610E0C948A010C94370E0C940D0E46
:1000E0000C948A0105A84CCDB2D44EB93836A90279
:1000F0000C50B9918688083CA6AAAA2ABE00000026
:10010000803F0C947F030C9439020C940C040C94E3
:1001100032040C94BA120C94AB030C94D0010C94DE
:10012000A1030C9447020C9444040C94A5030C9472
:100130005E030C9402040C9425020C9458040C9455
:1001400067040C944E040C9499040C9416020C94BD
:1001500085040C9407040C9478030C949D030C9470
:1001600093030C943A040C948F040C9497030C940E
:100170002A040C9489030C9485030C9493020C9428
:100180007C030C947B040C9470030C9416040C9464
:1001900071040C948F030C9474030C9420040C943D
:1001A000E0020C94AF030C945903000021002400DA
:1001B00027002A002D003000330001010000040157
:1001C00007010A0100002200250028002B002E0054
:1001D0003100340002010000050108010B01050592
:1001E0000505070508080808020202020A0A0808AD
:1001F00004040404010101010101010103030303DB
:1002000003030303040707070C0C0C0C0C0C0C0C69
:100210000202020206060606060606060B0B0B0B7A
:100220000B0B0B0B0102102020080810204010209F
:1002300040800201020108040201010204081020AA
:1002400040808040201008040201800402018040A8
:100250002010080402010804020101020408102011
:100260004080010204081020408000000A0B0209AF
:100270000C0D0E0807030401000000000000000040
:10028000000000000000000000000000000000006E
:10029000000000000000121110000000000000002B
:1002A000000000000000000000000000000000004E
:1002B000BA1211241FBECFEFD1E2DEBFCDBF00E0E6
:1002C0000CBF12E0A0E0B2E0EAE0F4E300E00BBF14
:1002D00002C007900D92AC33B107D9F724E0ACE32C
:1002E000B2E001C01D92AA39B207E1F711E0C9E5F9
:1002F000D1E000E006C021970109802FFE010E9495
:10030000F219C835D10780E00807A9F70E94331316
:100310000C94031A0C940000CF93DF93EC019A0124
:10032000AB01E889F98982E08083211581EE3807E5
:100330004105510581F160E079E08DE390E00E9494
:10034000B119215031094109510956954795379501
:100350002795EC85FD851082EE85FF852083188E1C
:10036000EC89FD8986E08083EA89FB898081806150
:100370008083EA89FB89808188608083EA89FB89A0
:10038000808180688083EA89FB8980818F7D80837A
:10039000DF91CF910895E889F989108220E1D9CFC2
:1003A000AF92BF92CF92DF92EF92FF920F931F9383
:1003B000CF93DF936C017B018B01040F151FEB01C1
:1003C0005E01AE18BF08C017D10759F06991D60178
:1003D000ED91FC910190F081E02DC6011995892BDA
:1003E00079F7C501DF91CF911F910F91FF90EF90A9
:1003F000DF90CF90BF90AF900895FC01A089B189A4
:100400008C91A689B78982FD0FC09C91818D8F5FE9
:100410008F73228D821749F0A18DAE0FBF2FB11DB2
:100420005D969C93818F08958C910895FC01538D66
:10043000448D252F30E0842F90E0821B930B5417BE
:1004400010F0CF96089501970895FC01918D828D4B
:10045000981761F0A28DAE0FBF2FB11D5D968C91E4
:10046000928D9F5F9F73928F90E008958FEF9FEF23
:100470000895FC01918D828D981731F0828DE80FDF
:10048000F11D858D90E008958FEF9FEF0895FC0199
:10049000918D228D892F90E0805C9F4F821B910966
:1004A0008F739927089583EC92E00E94470221E020
:1004B000892B09F420E0822F089580E693E00E94C2
:1004C000470221E0892B09F420E0822F08958DEF67
:1004D00093E00E94470221E0892B09F420E0822F5B
:1004E0000895FC01A48DA80FB92FB11DA35ABF4FC9
:1004F0002C91848D90E001968F739927848FA68923
:10050000B7892C93A089B1898C91837080648C9376
:10051000938D848D981306C00288F389E02D808125
:100520008F7D80830895EF92FF920F931F93CF9357
:10053000DF93EC0181E0888F9B8D8C8D98131AC01E
:10054000E889F989808185FF15C09FB7F894EE8905
:10055000FF896083E889F989808183708064808362
:100560009FBF81E090E0DF91CF911F910F91FF90AD
:10057000EF900895F62E0B8D10E00F5F1F4F0F7355
:100580001127E02E8C8D8E110CC00FB607FCFACF10
:10059000E889F989808185FFF5CFCE010E9471023B
:1005A000F1CFEB8DEC0FFD2FF11DE35AFF4FF082E1
:1005B0009FB7F8940B8FEA89FB8980818062CFCF47
:1005C000CF93DF93EC01888D8823B9F0AA89BB898A
:1005D000E889F9898C9185FD03C0808186FD0DC075
:1005E0000FB607FCF7CF8C9185FFF2CF808185FF96
:1005F000EDCFCE010E947102E9CFDF91CF91089536
:1006000080E090E0892B29F00E94670281110E940E
:10061000000080E090E0892B49F080E090E0892B99
:1006200029F00E94000081110E94000080E090E00B
:10063000892B29F00E945D0281110E94000080E058
:1006400090E0892B29F00E94530281110C94000044
:100650000895282F30E0F901E659FD4F9491F901F2
:10066000EC5DFD4F449122523E4FF901249122232B
:1006700009F435C0992311F191509231F8F4E92F22
:10068000F0E08827E95BFC4F8F4F0C94F219780358
:100690007C035903700374035E037F03850389039E
:1006A0008F03930397039D03A1035E03A503AB038D
:1006B000AF03809180008F7780938000E22FF0E07D
:1006C000EE0FFF1FEC53FE4FA591B4918FB7F89436
:1006D000EC91611148C040954E234C938FBF089513
:1006E000809180008F7DE8CF80918000877FE4CF6C
:1006F00084B58F7784BDE2CF84B58F7DFBCF8091A9
:10070000B0008F778093B000D9CF8091B0008F7DFB
:10071000F9CF809190008F7780939000CFCF809118
:1007200090008F7DF9CF80919000877FF5CF8091E9
:10073000A0008F778093A000C1CF8091A0008F7D13
:10074000F9CF8091A000877FF5CF809120018F772E
:1007500080932001B3CF809120018F7DF9CF8091CC
:100760002001877FF5CF4E2BB8CF582F282F30E0B0
:10077000F901EC5DFD4F4491F901E252FE4F849185
:10078000882399F090E0880F991FFC01E655FE4FF1
:10079000A591B491FC01EC53FE4F859194918FB7D4
:1007A000F894EC91E42BEC938FBF6115710521F463
:1007B00060E0852F0C9429036F3F710511F461E00F
:1007C000F8CFF901E659FD4FE491E150E23108F02C
:1007D000B0C0F0E08827E051FC4F8F4F0C94F21925
:1007E000020407040C041604200499042A043204A9
:1007F0003A0444044E0458046704710499047B04C9
:1008000085048F0484B5806884BD67BD089584B570
:10081000806284BD68BD0895809180008068809367
:100820008000709389006093880008958091800013
:1008300080628093800070938B0060938A0008959B
:100840008091800088608093800070938D00609319
:100850008C0008958091B00080688093B000609310
:10086000B30008958091B00080628093B0006093DF
:10087000B4000895809190008068809390007093F8
:100880009900609398000895809190008062809311
:10089000900070939B0060939A000895809190005F
:1008A00088608093900070939D0060939C000895F1
:1008B0008091A00080688093A0008091A0008F7B31
:1008C0008093A0007093A9006093A8000895809180
:1008D000A00080628093A0007093AB006093AA0098
:1008E00008958091A00088608093A0007093AD006F
:1008F0006093AC000895809120018068809320016E
:1009000070932901609328010895809120018062ED
:100910008093200170932B0160932A0108958091A8
:10092000200188608093200170932D0160932C0139
:100930000895603871050CF042CF3ACF3FB7F89474
:100940008091750290917602A0917702B091780221
:1009500026B5A89B05C02F3F19F00196A11DB11D1A
:100960003FBFBA2FA92F982F8827BC01CD01620F56
:10097000711D811D911D42E0660F771F881F991F11
:100980004A95D1F708952091B0023091B1022F5FBE
:100990003F4F3093B1022093B0028217930774F453
:1009A0008091B6029091B702680F791F7093B702D9
:1009B0006093B6021092B1021092B00208958F9225
:1009C0009F92AF92BF92CF92DF92EF92FF92CF931E
:1009D000DF930097B9F1EC01BC01990F880B990BDB
:1009E0000E94FF172DEC3CEC4CE45EE30E94F318F0
:1009F0006B017C016091B6027091B702072E000C6A
:100A0000880B990B0E94FF174B015C0120E030E03E
:100A100040E05FE3C701B601D7FF11C00E94DE16B8
:100A2000A50194010E945517DF91CF91FF90EF909F
:100A3000DF90CF90BF90AF909F908F9008950E94CD
:100A4000DF16EECF60E070E0CB01EECFCF93DF9307
:100A5000EC018F3F910509F08CF4C1308FEFD8077E
:100A600084F01C161D067CF4BE0186E00E94B503CE
:100A700060E085E0DF91CF910C942903CFEFD0E0C7
:100A8000F3CFC1E0DFEF60E086E00E942903662734
:100A900077276C1B7D0B85E0DF91CF910C94B5031C
:100AA000CF93DF93EC018F3F910509F0FCF4C13047
:100AB0008FEFD80764F0D7FD0CC060E088E00E949B
:100AC0002903BE0187E0DF91CF910C94B503C1E00B
:100AD000DFEF662777276C1B7D0B88E00E94B5034C
:100AE00060E087E0DF91CF910C942903CFEFD0E055
:100AF000E4CFCF93DF93EC018F3F910509F0FCF435
:100B0000C1308FEFD80764F0D7FD0CC060E08AE0F9
:100B10000E942903BE0189E0DF91CF910C94B503B7
:100B2000C1E0DFEF662777276C1B7D0B8AE00E9410
:100B3000B50360E089E0DF91CF910C942903CFEFFA
:100B4000D0E0E4CFCF93DF93EC018F3F910509F024
:100B50008CF4C1308FEFD80784F01C161D067CF48E
:100B6000BE018CE20E94B50360E082E0DF91CF918C
:100B70000C942903CFEFD0E0F3CFC1E0DFEF60E0CA
:100B80008CE20E942903662777276C1B7D0B82E08D
:100B9000DF91CF910C94B503FB0101900020E9F7A0
:100BA0003197AF01461B570B0C94D0014F925F92C7
:100BB0006F927F928F929F92AF92BF92CF92DF926D
:100BC000EF92FF92CF93DF93CDB7DEB72C970FB69E
:100BD000F894DEBF0FBECDBF6B017C0160910102B6
:100BE00070910202603385E7780709F065C11092C1
:100BF00064021092650210926602109267021092CF
:100C000060021092610210926202109263021092CE
:100C100058021092590210925A0210925B021092DE
:100C20005C0210925D0210925E0210925F0220E060
:100C300030E0A901C701B6010E944B17882309F4CF
:100C400029C34090640250906502609066027090E3
:100C5000670280905C0290905D02A0905E02B0906E
:100C60005F028091580290915902A0915A02B0916E
:100C70005B0289839A83AB83BC83809160029091ED
:100C80006102A0916202B09163028D839E83AF8363
:100C9000B8878091BA029091BB028230910509F425
:100CA000AFC20CF0CFC0009709F442C2019709F41B
:100CB0007CC28091640290916502A0916602B0911D
:100CC000670289839A83AB83BC8340906002509013
:100CD00061026090620270906302C0905802D090EE
:100CE0005902E0905A02F0905B0280905C02909072
:100CF0005D02A0905E02B0905F0220E030E0A901AA
:100D0000C501B4010E944B1787FF04C0B7FAB09425
:100D1000B7F8B09420E030E0A901C701B6010E9405
:100D20004B1787FF04C0F7FAF094F7F8F09420E02F
:100D300030E0A901C301B2010E944B1787FF04C034
:100D400077FA709477F8709420E030E0A901698117
:100D50007A818B819C810E944B1787FF09C0898112
:100D60009A81AB81BC81B05889839A83AB83BC8361
:100D70002FE632E143E85AE3C501B4010E94EE18C0
:100D8000181644F08FE6882E82E1982E83E8A82E6C
:100D90008AE3B82EA5019401C701B6010E94EE189E
:100DA000181614F075016401A7019601C301B20180
:100DB0000E94EE18181614F026013701A3019201C3
:100DC00069817A818B819C810E94EE18181624F02B
:100DD00049825A826B827C8229813A814B815C8173
:100DE00060E070E08EE793E40E9455170E94C717F9
:100DF00070936F0260936E022091B6023091B70239
:100E00006217730724F47093B7026093B60281E00F
:100E100090E090936902809368022C960FB6F89444
:100E2000DEBF0FBECDBFDF91CF91FF90EF90DF907F
:100E3000CF90BF90AF909F908F907F906F905F907A
:100E40004F9008958330910509F401C2049709F089
:100E500030CFA7019601C701B6010E94DF16A50198
:100E600094010E94DF1660935C0270935D02809390
:100E70005E0290935F0229813A814B815C81C701B8
:100E8000B6010E94DF166093580270935902809356
:100E90005A0290935B022D813E814F815885C70194
:100EA000B6010E94DF166093600270936102809326
:100EB000620290936302FDCE8091B2029091B302E0
:100EC0002091790230917A02821B930B681B790B77
:100ED000072E000C880B990B0E94FF1720E030E0D2
:100EE00040E251E40E94551720E030E044E352E430
:100EF0000E94DF1625E33AEF4EE85CE30E94F31808
:100F00002B013C010E9450179B01AC010E94DF168F
:100F100069837A838B839C838090440290904502FE
:100F2000A0904602B0904702C301B2010E9460192E
:100F30009B01AC010E94DF162B013C01A50194012D
:100F40000E94DE166D837E838F839887C301B20172
:100F50009058A50194010E94DE162B013C01698185
:100F60007A818B819C819058A50194010E94DE16A4
:100F700069877A878B879C87A501940169817A812B
:100F80008B819C810E94DE1620E030E048EC52E428
:100F90000E94F3184B015C0120E030E0A9010E949F
:100FA000EE1820E030E040E05FE387FDADC0C50112
:100FB000B4010E94DF160E94C71724E630E040E02B
:100FC00050E00E94D319CA01B9010E94FF17609333
:100FD00058027093590280935A0290935B0220E06A
:100FE00030E048EC52E4C301B2010E94F3184B0117
:100FF0005C0120E030E0A9010E94EE1820E030E022
:1010000040E05FE387FD85C0C501B4010E94DF16A3
:101010000E94C71724E630E040E050E00E94D31958
:10102000CA01B9010E94FF1760935C0270935D02D0
:1010300080935E0290935F0220E030E048EC52E43F
:1010400069857A858B859C850E94F3184B015C012C
:1010500020E030E0A9010E94EE1820E030E040E0FE
:101060005FE387FD5BC0C501B4010E94DF160E94EB
:10107000C71724E630E040E050E00E94D319CA01CF
:10108000B9010E94FF176093600270936102809320
:1010900062029093630220E030E048EC52E46D81FC
:1010A0007E818F8198850E94F3184B015C0120E0BE
:1010B00030E0A9010E94EE1820E030E040E05FE35C
:1010C00087FD31C0C501B4010E94DF160E94C71719
:1010D00024E630E040E050E00E94D319CA01B90193
:1010E0000E94FF176093640270936502809366020A
:1010F0009093670220E030E0A901C701B6010E9489
:101100004B1781119ECDD5CDC501B4010E94DE16CD
:1011100052CFC501B4010E94DE167ACFC501B401D9
:101120000E94DE16A4CFC501B4010E94DE16CECF08
:10113000A7019601C501B4010E94DE1660935C020E
:1011400070935D0280935E0290935F02A701960107
:1011500069817A818B819C810E94DE16609358029E
:101160007093590280935A0290935B02A7019601F3
:101170006D817E818F8198850E94DE16609360026A
:10118000709361028093620290936302A7019601BB
:10119000C301B2010E94DE1660936402709365027F
:1011A000809366029093670284CD29813A814B81B6
:1011B0005C81C701B6010E94DF16609358027093EC
:1011C000590280935A0290935B022D813E814F8198
:1011D0005885C701B6010E94DF16609360027093C4
:1011E00061028093620290936302A7019601C70196
:1011F000B6010E94DF16A30192010E94DF16CCCF38
:10120000A5019401C701B6010E94DF1660935C023C
:1012100070935D0280935E0290935F02A701960136
:10122000C701B6010E94DF162D813E814F8158858E
:101230000E94DF16609360027093610280936202E5
:1012400090936302A3019201C701B601D6CFA50115
:101250009401C701B6010E94DF1660935C0270938F
:101260005D0280935E0290935F02A7019601C70121
:10127000B6010E94DF1629813A814B815C810E9470
:10128000DF16609358027093590280935A0290932C
:101290005B02D8CF19821A821B821C82812C912C6E
:1012A000540175016401240135014ECDCF92DF92C6
:1012B000EF92FF926B017C011092C2028091C002FA
:1012C0009091C1028033954799F42091BC023091EE
:1012D000BD024091BE025091BF02C7010E944B1750
:1012E000811106C08091BA029091BB02892B89F1CD
:1012F00080910102909102028033954761F483E668
:1013000090E09093B9028093B80285E090E09093CA
:10131000B7028093B60280E395E79093C102809371
:10132000C0021092BB021092BA02C092BC02D092CC
:10133000BD02E092BE02F092BF021092B102109282
:10134000B002C701B601FF90EF90DF90CF900C94F0
:10135000D605FF90EF90DF90CF900895CF92DF9267
:10136000EF92FF920F931F93CF93DF93EC018B01CA
:1013700069017A0180910102909102028C179D0708
:1013800099F48091B8029091B9028617970761F499
:10139000609144027091450280914602909147020B
:1013A0000E944B178823D1F11093B9020093B80221
:1013B0008091B6029091B702892B31F485E090E0DC
:1013C0009093B7028093B6028091B2029091B302DB
:1013D00090937A0280937902C0924402D09245029F
:1013E000E0924602F0924702D0930202C0930102BB
:1013F0001092B1021092B0026091BC027091BD02D5
:101400008091BE029091BF02DF91CF911F910F9109
:10141000FF90EF90DF90CF900C94D605DF91CF91A5
:101420001F910F91FF90EF90DF90CF900895209142
:10143000C202211123C02091480230914902309309
:1014400043022093420220914A0230914B02309392
:1014500041022093400220914C0230914D02309382
:101460003F0220933E0220914E0230914F02309372
:101470003D0220933C0221E02093C2021092B90267
:101480001092B80290936D0280936C02892B59F5EB
:101490001092B7021092B6021092440210924502C6
:1014A000109246021092470280E395E79093020261
:1014B000809301021092BC021092BD021092BE02F3
:1014C0001092BF021092BB021092BA021092C10297
:1014D0001092C0021092B5021092B40260E070E067
:1014E000CB010C94D60508952091AE023091AF0245
:1014F000A90140E15402412D550B112492E040FD19
:1015000090E0A901550F440B550F542F441F40FD87
:101510002EC044E0942B48E037FD40E0942BA90115
:1015200048E05402412D550B112440FD22C040E1FA
:10153000942B40E222FD40E0942B23FD1CC020E4CC
:10154000922B9093AD029A3209F432C30CF053C03F
:10155000903109F456C154F5943009F4E8C16CF4A3
:10156000992309F495C0923009F4A4C0089540E08D
:10157000D1CF40E0DDCF20E0E3CF9A3009F4DBC2E9
:101580009C3009F430C2983009F093C08091AC02CD
:10159000811185C26091000270E020E030E0A90175
:1015A0008CE79CEF0E94AE0983E10895903209F424
:1015B00029C33CF4923109F4C8C0943109F46CC1D8
:1015C0000895943209F4F0C1983209F495C2923228
:1015D00009F06FC08091AC028111A9C06091000236
:1015E00070E020E030E040E85FEB90E080E00E94B7
:1015F000AE0983E00895943409F4B7C12CF5923311
:1016000009F4E0C03CF49C3209F42AC2903309F496
:1016100024C10895903409F4EAC2923409F468C0F0
:10162000943309F046C08091AC02811172C160917F
:10163000000270E020E030E040E85FEB86E495E0F7
:101640000E94AE098CE008959C3409F4EAC13CF490
:10165000983409F432C29A3409F48BC20895923551
:1016600009F491C0943509F435C1903511F5809194
:10167000AC028111E4C06091000270E020E030E033
:1016800040E85FE384E893E00E94AE0988E00895B3
:1016900082E090E00E94170A8091AC02813041F410
:1016A0008091B6029091B702892B11F41092AC028E
:1016B00080E008958091AC0281110CC0609100021D
:1016C00070E020E030E0A90190E080E00E94AE09E7
:1016D00081E008958091B6029091B702892B29F09C
:1016E00082E090E00E94170AF3CF1092AC02F0CF94
:1016F0008091AC0281110DC06091000270E020E089
:1017000030E040E85FE390E080E00E94AE0982E0D4
:1017100008958091B6029091B702892B29F082E05A
:1017200090E00E94170AF3CF1092AC02F0CF8091A4
:10173000B6029091B702892B29F082E090E00E94D6
:10174000170A57CF1092AC0254CF8091AC0281118E
:101750000CC06091000270E020E030E0A90182EC52
:1017600091E00E94AE0984E008958091B6029091C4
:10177000B702892B29F082E090E00E94170AF3CF8C
:101780001092AC02F0CF8091AC0281110DC060913B
:10179000000270E020E030E040E85FE382EC91E09E
:1017A0000E94AE0985E008958091B6029091B7023B
:1017B000892B29F082E090E00E94170AF3CF109263
:1017C000AC02F0CF8091AC0281110DC0609100029B
:1017D00070E020E030E040E85FEB82EC91E00E94B6
:1017E000AE0986E008958091B6029091B702892BE8
:1017F00029F082E090E00E94170AF3CF1092AC0229
:10180000F0CF8091AC0281110CC06091000270E0B9
:1018100020E030E0A90184E893E00E94AE0987E06F
:1018200008958091B6029091B702892B29F082E049
:1018300090E00E94170AF3CF1092AC02F0CF809193
:10184000B6029091B702892B29F082E090E00E94C5
:10185000170A1CCF1092AC0219CF8091AC028111F3
:101860000DC06091000270E020E030E040E85FEBE6
:1018700084E893E00E94AE0989E008958091B60261
:101880009091B702892B29F082E090E00E94170A1C
:10189000F3CF1092AC02F0CF8091AC0281110CC05A
:1018A0006091000270E020E030E0A90186E495E05C
:1018B0000E94AE098AE008958091B6029091B70225
:1018C000892B29F082E090E00E94170AF3CF109252
:1018D000AC02F0CF8091AC0281110DC0609100028A
:1018E00070E020E030E040E85FE386E495E00E94AD
:1018F000AE098BE008958091B6029091B702892BD2
:1019000029F082E090E00E94170AF3CF1092AC0217
:10191000F0CF8091B6029091B702892B29F082E036
:1019200090E00E94170A8ECE1092AC028BCE80916E
:10193000AC0281110CC06091000270E020E030E048
:10194000A90188E097E00E94AE098DE0089580919A
:10195000B6029091B702892B29F082E090E00E94B4
:10196000170AF3CF1092AC02F0CF8091AC02811134
:101970000DC06091000270E020E030E040E85FE3DD
:1019800088E097E00E94AE098EE008958091B6024B
:101990009091B702892B29F082E090E00E94170A0B
:1019A000F3CF1092AC02F0CF8091AC0281110DC048
:1019B0006091000270E020E030E040E85FEB88E0FA
:1019C00097E00E94AE098FE008958091B602909151
:1019D000B702892B29F082E090E00E94170AF3CF2A
:1019E0001092AC02F0CF8091AC0281110CC06091DA
:1019F000000270E020E030E0A9018AEB9AEF0E943B
:101A0000AE0980E108958091B6029091B702892BCA
:101A100029F082E090E00E94170AF3CF1092AC0206
:101A2000F0CF8091AC0281110DC06091000270E096
:101A300020E030E040E85FE38AEB9AEF0E94AE09D5
:101A400081E108958091B6029091B702892B29F027
:101A500082E090E00E94170AF3CF1092AC02F0CF20
:101A60008091AC0281110DC06091000270E020E015
:101A700030E040E85FEB8AEB9AEF0E94AE0982E12A
:101A800008958091B6029091B702892B29F082E0E7
:101A900090E00E94170AF3CF1092AC02F0CF809131
:101AA000B6029091B702892B29F082E090E00E9463
:101AB000170A7ACD1092AC0277CD8091AC028111D9
:101AC0000DC06091000270E020E030E040E85FE38C
:101AD0008CE79CEF0E94AE0984E108958091B602E4
:101AE0009091B702892B29F082E090E00E94170ABA
:101AF000F3CF1092AC02F0CF8091AC0281110DC0F7
:101B00006091000270E020E030E040E85FEB8CE79D
:101B10009CEF0E94AE0985E108958091B6029091F4
:101B2000B702892B29F082E090E00E94170AF3CFD8
:101B30001092AC02F0CF8091AC0281110CC0609188
:101B4000000270E020E030E0A9018EE39EEF0E94E9
:101B5000AE0986E108958091B6029091B702892B73
:101B600029F082E090E00E94170AF3CF1092AC02B5
:101B7000F0CF8091AC0281110DC06091000270E045
:101B800020E030E040E85FE38EE39EEF0E94AE0984
:101B900087E108958091B6029091B702892B29F0D0
:101BA00082E090E00E94170AF3CF1092AC02F0CFCF
:101BB0008091AC0281110DC06091000270E020E0C4
:101BC00030E040E85FEB8EE39EEF0E94AE0988E1D3
:101BD00008958091B6029091B702892B29F082E096
:101BE00090E00E94170AF3CF1092AC02F0CF81E090
:101BF0008093AC0260E070E080E89FE30E945609A9
:101C000089E1089581E08093AC0260E070E080E8B3
:101C10009FEB0E9456098AE108951F920F920FB61A
:101C20000F9211240BB60F922F933F934F935F9314
:101C30006F937F938F939F93AF93BF93EF93FF9394
:101C400083EC92E00E947102FF91EF91BF91AF91FE
:101C50009F918F917F916F915F914F913F912F91C4
:101C60000F900BBE0F900FBE0F901F9018951F92F4
:101C70000F920FB60F9211240BB60F922F933F9332
:101C80004F935F936F937F938F939F93AF93BF9384
:101C9000EF93FF9383EC92E00E94FD01FF91EF919F
:101CA000BF91AF919F918F917F916F915F914F9174
:101CB0003F912F910F900BBE0F900FBE0F901F9072
:101CC00018951F920F920FB60F9211240BB60F9218
:101CD0002F933F934F935F936F937F938F939F9334
:101CE000AF93BF93EF93FF9380E693E00E9471025E
:101CF000FF91EF91BF91AF919F918F917F916F91E4
:101D00005F914F913F912F910F900BBE0F900FBE9F
:101D10000F901F9018951F920F920FB60F921124DB
:101D20000BB60F922F933F934F935F936F937F93D5
:101D30008F939F93AF93BF93EF93FF9380E693E0CE
:101D40000E94FD01FF91EF91BF91AF919F918F9103
:101D50007F916F915F914F913F912F910F900BBEAB
:101D60000F900FBE0F901F9018951F920F920FB6F5
:101D70000F9211240BB60F922F933F934F935F93C3
:101D80006F937F938F939F93AF93BF93EF93FF9343
:101D90008DEF93E00E947102FF91EF91BF91AF919F
:101DA0009F918F917F916F915F914F913F912F9173
:101DB0000F900BBE0F900FBE0F901F9018951F92A3
:101DC0000F920FB60F9211240BB60F922F933F93E1
:101DD0004F935F936F937F938F939F93AF93BF9333
:101DE000EF93FF938DEF93E00E94FD01FF91EF9140
:101DF000BF91AF919F918F917F916F915F914F9123
:101E00003F912F910F900BBE0F900FBE0F901F9020
:101E100018951F920F920FB60F9211242F933F9394
:101E20008F939F93AF93BF938091710290917202B1
:101E3000A0917302B09174023091700223E0230FDD
:101E40002D3758F50196A11DB11D20937002809386
:101E5000710290937202A0937302B0937402809106
:101E6000750290917602A0917702B0917802019666
:101E7000A11DB11D8093750290937602A093770205
:101E8000B0937802BF91AF919F918F913F912F9125
:101E90000F900FBE0F901F90189526E8230F029603
:101EA000A11DB11DD2CF1F920F920FB60F92112418
:101EB0000BB60F922F923F924F925F926F927F924A
:101EC0008F929F92AF92BF92CF92DF92EF92FF924A
:101ED0000F931F932F933F934F935F936F937F9332
:101EE0008F939F93AF93BF93CF93DF93EF93FF9322
:101EF00086E09FEF90938500809384001092B30258
:101F00001092B2022091B4023091B5022230310514
:101F1000E4F08091C0029091C102AC0197FF04C02F
:101F200044275527481B590B443051050CF085C1F7
:101F3000C90101969093B5028093B402253F3140C8
:101F400024F090E080E00E94170A8091B8029091FE
:101F5000B9026091B6027091B702181619060CF01A
:101F6000ADC18617970721F1681779070CF0A1C159
:101F700080916E0290916F0268177907CCF4072E5A
:101F8000000C880B990B0E94FF172DEC3CEC4CECDD
:101F90005DEB0E94F31820E030E040EA51E40E943B
:101FA000DF160E94C717CB0163E070E00E94C304F4
:101FB000C091B202D091B30280916A0290916B02FB
:101FC0008C179D0709F48BC020E030E0A9016091D7
:101FD00044027091450280914602909147020E940E
:101FE0004B17811178C02090B6023090B7022114AF
:101FF000310409F470C00091C0021091C102003395
:1020000025E712070CF067C0C090BC02D090BD025B
:10201000E090BE02F090BF0220E030E0A901C701CD
:10202000B6010E944B17882309F48BC280910102EC
:10203000909102028033954709F007C220E030E01A
:10204000A901C701B6010E94EE18181634F4C801A0
:10205000875C9109C817D90784F420E030E0A90112
:10206000C701B6010E944B1787FF68C2C801895398
:102070009F4F8C179D070CF461C28091B402909120
:10208000B502039744F528014C1A5D0A57FE03C0B8
:102090005194419451088AE0481651040CF084C1CF
:1020A0001092B7021092B6021092B9021092B802C2
:1020B0001092BC021092BD021092BE021092BF029A
:1020C00082E090E09093B5028093B40260E070E00B
:1020D000CB010E94D605D0936B02C0936A02809117
:1020E000680290916902892B09F432C16091B602AD
:1020F0007091B702072E000C880B990B0E94FF17F6
:102100004B015C01209164023091650240916602AE
:10211000509167020E94F3186B017C0120E030E0CF
:10212000A9010E944B1720E030E040E05FE387FF09
:102130000DC2C701B6010E94DE160E94C717EB014F
:1021400020916002309161024091620250916302DD
:10215000C501B4010E94F3186B017C0120E030E05E
:10216000A9010E944B1720E030E040E05FE387FFC9
:10217000F2C1C701B6010E94DE160E94C7178B018B
:1021800020915C0230915D0240915E0250915F02AD
:10219000C501B4010E94F3186B017C0120E030E01E
:1021A000A9010E944B1720E030E040E05FE387FF89
:1021B000D7C1C701B6010E94DE160E94C7177B0176
:1021C000209158023091590240915A0250915B027D
:1021D000C501B4010E94F3184B015C0120E030E01E
:1021E000A9010E944B1720E030E040E05FE387FF49
:1021F000BCC1C501B4010E94DE160E94C7176B0165
:10220000CB010E94A205C7010E947905C8010E9466
:102210005005CE010E942605D0924902C092480284
:10222000F0924B02E0924A0210934D0200934C024E
:10223000D0934F02C0934E028BC02B3F31054CF11F
:1022400025E030E03093B9022093B8023093B70212
:102250002093B6022BEF30E03093B5022093B40206
:1022600097FF22C080E090E0A0E8BFEB8093BC0223
:102270009093BD02A093BE02B093BF026091BC02D6
:102280007091BD028091BE029091BF020E94D6055E
:102290005CCE25E030E03093B9022093B802309351
:1022A000B7022093B602DCCF80E090E0A0E8BFE365
:1022B000DDCF6FEF7FEF8FE090E078CE1616170638
:1022C0003CF46FEF7FEF80916C0290916D026ECEC7
:1022D0008091B4029091B5020297F4F410924402F6
:1022E0001092450210924602109247021092BC02D0
:1022F0001092BD021092BE021092BF021092BB0259
:102300001092BA0280E395E7909302028093010253
:102310001092C1021092C0028091B0029091B1025D
:1023200001969093B1028093B00284369105ACF58A
:1023300090E080E00E94A20590E080E00E94790594
:1023400090E080E00E94500590E080E00E94260529
:10235000FF91EF91DF91CF91BF91AF919F918F91BD
:102360007F916F915F914F913F912F911F910F91AD
:10237000FF90EF90DF90CF90BF90AF909F908F90A5
:102380007F906F905F904F903F902F900F900BBE7B
:102390000F900FBE0F901F90189584E690E09093D9
:1023A000B1028093B002C4CFB101330C880B990BFA
:1023B0000E94FF174B015C01A70196010E94F318D0
:1023C00020E030E048E453E40E9455176B017C01A3
:1023D000052C000C6608770820E030E0A901C01742
:1023E000D107DCF40E94EE1887FF04C0F7FAF094DE
:1023F000F7F8F094C301B2010E94FF17A7019601FC
:102400000E94F31820E030E040EC50E40E94DF1618
:10241000A50194010E9455175CCE0E94EE1887FF1B
:1024200004C0F7FAF094F7F8F094C301B2010E94E7
:10243000FF17A70196010E94F31820E030E040EC5E
:1024400050E40E94DF169058E3CF20E030E0A9016D
:10245000C701B6010E94EE1818168CF5BE010D2EAC
:10246000000C880B990B0E94FF174B015C01B8010F
:10247000012E000C880B990B0E94FF172B013C01C9
:10248000B101032C000C880B990B0E94FF17A701C8
:1024900096010E94F3189B01AC01C301B2010E9496
:1024A000DE1620E030E048EC52E40E94DE169B018C
:1024B000AC01C501B4010E94EE181816CCF120E061
:1024C00030E0A901C701B6010E944B1787FF36C053
:1024D000BE010D2E000C880B990B0E94FF174B01BB
:1024E0005C01B801012E000C880B990B0E94FF17AC
:1024F0002B013C01B101330C880B990B0E94FF1793
:10250000A70196010E94F3189B01AC01C301B2011F
:102510000E94DE1620E030E048EC52E40E94DF1614
:102520009B01AC01C501B4010E944B1787FF06C097
:10253000C8018C1B9D0B0E94DF04CBCDC701B601E7
:10254000C8CD8091790290917A02F3CFC701B6018C
:102550000E94DF16F2CDC701B6010E94DF160DCE34
:10256000C701B6010E94DF1628CEC501B4010E9442
:10257000DF1643CEE3ECF2E01382128248EE53E022
:1025800060E070E0448355836683778387E092E060
:102590009183808325E331E03587248724E331E08C
:1025A0003787268720E331E0318B208B21E331E030
:1025B000338B228B22E331E0358B248B26E331E011
:1025C000378B268B118E128E138E148EE0E6F3E07D
:1025D0001382128244835583668377839183808339
:1025E00025ED30E03587248724ED30E037872687D6
:1025F00020ED30E0318B208B21ED30E0338B228BCE
:1026000022ED30E0358B248B26ED30E0378B268BA6
:10261000118E128E138E148EEDEFF3E01382128260
:1026200044835583668377839183808385EC90E030
:102630009587848784EC90E09787868780EC90E08C
:10264000918B808B81EC90E0938B828B82EC90E07D
:10265000958B848B86EC90E0978B868B118E128EF7
:10266000138E148E0895CF93DF93CDB7DEB7A19765
:102670000FB6F894DEBF0FBECDBF789484B58260EC
:1026800084BD84B5816084BD85B5826085BD85B516
:10269000816085BD80916E00816080936E00109294
:1026A000810080918100826080938100809181000F
:1026B00081608093810080918000816080938000A0
:1026C0008091B10084608093B1008091B0008160FE
:1026D0008093B000809191008260809391008091FE
:1026E000910081608093910080919000816080933F
:1026F00090008091A10082608093A1008091A10050
:1027000081608093A1008091A00081608093A000EF
:10271000809121018260809321018091210181605B
:10272000809321018091200181608093200180911C
:102730007A00846080937A0080917A00826080932E
:102740007A0080917A00816080937A0080917A008B
:10275000806880937A001092C10040E052EC61E002
:1027600070E080E693E00E948C0140E855E260E072
:1027700070E08DEF93E00E948C0165E172E08DEFD7
:1027800093E00E94CC0566E372E08DEF93E00E9437
:10279000CC0540E05BE460E070E083EC92E00E94F6
:1027A0008C0161E680E693E00E949302F894109217
:1027B00080001092810010926F00809181008360F0
:1027C0008093810086E09FEF909385008093840042
:1027D00081E080936F00789482E090E00E94170A75
:1027E00020E030E0A9016091BC027091BD028091AF
:1027F000BE029091BF020E944B1781110CC08091C4
:10280000BA029091BB02892B31F48091C002909161
:10281000C102892BE9F01092BC021092BD02109205
:10282000BE021092BF021092BB021092BA02109226
:10283000C1021092C0028091B2029091B3029093B3
:102840007A028093790260E070E0CB010E94D605A5
:1028500082E090E00E94170A0E949E044B015C01F6
:10286000E8EECE2EE3E0DE2EE12CF12C0E949E0459
:10287000681979098A099B09683E734081059105A9
:10288000A8F321E0C21AD108E108F10888EE880E09
:1028900083E0981EA11CB11CC114D104E104F10411
:1028A00029F752E3852E64E1962E7AE0272E312C0B
:1028B000412C512C0E949E048B019C016093840248
:1028C00010938502809386023093870210928802CB
:1028D0001092890210928A0210928B0269E372E0D0
:1028E00080E693E00E94CC050E949E049B01AC010F
:1028F00060E070E080E090E0A0908402B0908502FB
:10290000C0908602D0908702E0908802F090890201
:1029100000918A0210918B020E94FA192F313E44D5
:1029200041055105610571058105910511F00CF016
:1029300052C083EC92E00E944702892BD1F383ECD2
:1029400092E00E942502909183028A3A21F49F5FCF
:1029500090938302C9CF9430D9F5209181023091B0
:102960008202F901E558FD4F80832F5F3F4F30937E
:102970008202209381022630310509F0B5CF809183
:102980007B0290917C029827892798279093AF0229
:102990008093AE0280917D02109292028093930206
:1029A00080917E0290E090938F0280938E028091BE
:1029B0007F0210929A0280939B028091800290E0A5
:1029C0009093970280939602109282021092810255
:1029D0001092830289CF80E693E00E94250280E670
:1029E00093E00E94250280E693E00E94250280E6A3
:1029F00093E00E9425028091AE029091AF029C016B
:102A000020E23202212D330B1124B90161707727A6
:102A100020FD03C024E620930002292F332727FD41
:102A20003A95A9014170552720FD03C0E6E9E093DE
:102A3000000285FB662460F8712C85FF80920002FD
:102A400097FDB7C02091AB022F5F253108F0AEC0D3
:102A50002093AB0296FDB3C02091AA022F5F2531CF
:102A600008F0AAC02093AA0295FDAFC02091A90248
:102A70002F5F253108F0A6C02093A90294FDABC0BA
:102A80002091A8022F5F253108F0A2C02093A80250
:102A9000672B09F0A6C02091A7022F5F253108F00F
:102AA0009DC02093A70292FDA2C02091A6022F5F95
:102AB000253108F099C02093A60291FD9EC0209177
:102AC000A5022F5F253108F095C02093A502452B64
:102AD00009F099C02091A4022F5F253108F090C021
:102AE0002093A40287FD95C02091A3022F5F25317A
:102AF00008F08CC02093A30286FD91C02091A20211
:102B00002F5F253108F088C02093A202672809F0C2
:102B10008CC02091A1022F5F253108F083C0209343
:102B2000A10284FD88C02091A0022F5F253108F00A
:102B30007FC02093A00283FD84C020919F022F5F5D
:102B4000253108F07BC020939F0282FD80C0209138
:102B50009E022F5F253108F077C020939E0281FDF1
:102B60007CC020919D022F5F253108F073C0209317
:102B70009D0280FD78C080919C028F5F853108F0B6
:102B80006FC080939C0280919A0290919B02843145
:102B900091050CF06BC0809199028F5F853108F42C
:102BA00086C090929902109298026DC09092AB02EA
:102BB00051CF1092AB024ECF9092AA0255CF1092F5
:102BC000AA0252CF9092A90259CF1092A90256CFD1
:102BD0009092A8025DCF1092A8025ACF9092A702BD
:102BE00062CF1092A7025FCF9092A60266CF10929A
:102BF000A60263CF9092A5026ACF1092A50267CF7A
:102C00009092A4026FCF1092A4026CCF9092A30274
:102C100073CF1092A30270CF9092A20277CF10923E
:102C2000A20274CF9092A1027CCF1092A10279CF20
:102C30009092A00280CF1092A0027DCF90929F022E
:102C400084CF10929F0281CF90929E0288CF1092E3
:102C50009E0285CF90929D028CCF10929D0289CFCB
:102C600090929C0290CF10929C028DCF109299026C
:102C70008C3E91050CF497CF809198028F5F85313F
:102C800098F48093980280919602909197028431F3
:102C9000910584F4809195028F5F853158F190926F
:102CA00095021092940212C090929802ECCF8093F9
:102CB000990279CF109295028C3E910594F3809100
:102CC00094028F5F853198F48093940280919202F0
:102CD000909193028431910584F4809191028F5FE9
:102CE000853160F1909291021092900212C0909200
:102CF0009402ECCF80939502D4CF109291028C3E37
:102D0000910594F3809190028F5F8531A0F48093B8
:102D1000900280918E0290918F02843191058CF403
:102D200080918D028F5F853108F445C090928D02AD
:102D300010928C0212C090929002EBCF809391027D
:102D4000D3CF10928D028C3E910594F380918C022A
:102D50008F5F853168F580938C020E94740A0E940F
:102D6000740A282F30E050E040E019A28E010F5D78
:102D70001F4FCA01B901A20191010E94B119605D02
:102D8000F80162938F01211531054105510589F73D
:102D9000309729F0BF018DEF93E00E94CC0566E3E8
:102DA00072E08DEF93E00E94CC050E94000382CD7B
:102DB00090928C02D2CF80938D02BACF5058BB270D
:102DC000AA270E94F6160C94A0180E94671838F0E3
:102DD0000E946E1820F039F49F3F19F426F40C94E9
:102DE00064180EF4E095E7FB0C945E18E92F0E943E
:102DF000C51858F3BA17620773078407950720F0C0
:102E000079F4A6F50C94E7180EF4E0950B2EBA2F82
:102E1000A02D0B01B90190010C01CA01A0011124E0
:102E2000FF27591B99F0593F50F4503E68F11A168C
:102E3000F040A22F232F342F4427585FF3CF46951D
:102E400037952795A795F0405395C9F77EF41F163F
:102E5000BA0B620B730B840BBAF09150A1F0FF0F09
:102E6000BB1F661F771F881FC2F70EC0BA0F621FF5
:102E7000731F841F48F4879577956795B795F795E5
:102E80009E3F08F0B0CF9395880F08F09927EE0F7A
:102E90009795879508950E943A1808F481E008955F
:102EA0000E947718E3950C94B1180E9469170C944E
:102EB000A0180E946E1858F00E94671840F029F47C
:102EC0005F3F29F00C945E1851110C94E8180C9493
:102ED00064180E94C51868F39923B1F3552391F340
:102EE000951B550BBB27AA2762177307840738F079
:102EF0009F5F5F4F220F331F441FAA1FA9F335D0D6
:102F00000E2E3AF0E0E832D091505040E695001C89
:102F1000CAF72BD0FE2F29D0660F771F881FBB1F43
:102F2000261737074807AB07B0E809F0BB0B802D21
:102F3000BF01FF2793585F4F3AF09E3F510578F04D
:102F40000C945E180C94E8185F3FE4F3983ED4F3B9
:102F5000869577956795B795F7959F5FC9F7880F21
:102F6000911D9695879597F90895E1E0660F771F73
:102F7000881FBB1F621773078407BA0720F0621B04
:102F8000730B840BBA0BEE1F88F7E09508950E942F
:102F9000CE176894B1110C94E81808950E94CD18CA
:102FA00088F09F5798F0B92F9927B751B0F0E1F00A
:102FB000660F771F881F991F1AF0BA95C9F714C0BA
:102FC000B13091F00E94E718B1E008950C94E71831
:102FD000672F782F8827B85F39F0B93FCCF38695F3
:102FE00077956795B395D9F73EF490958095709550
:102FF00061957F4F8F4F9F4F0895E89409C097FBCD
:103000003EF490958095709561957F4F8F4F9F4FBF
:103010009923A9F0F92F96E9BB279395F695879503
:1030200077956795B795F111F8CFFAF4BB0F11F4C6
:1030300060FF1BC06F5F7F4F8F4F9F4F16C088236D
:1030400011F096E911C0772321F09EE8872F762FA3
:1030500005C0662371F096E8862F70E060E02AF0E4
:103060009A95660F771F881FDAF7880F96958795D0
:1030700097F90895990F0008550FAA0BE0E8FEEFA5
:1030800016161706E807F907C0F012161306E4072C
:10309000F50798F0621B730B840B950B39F40A2625
:1030A00061F0232B242B252B21F408950A2609F403
:1030B000A140A6958FEF811D811D089597F99F6707
:1030C00080E870E060E008959FEF80EC08950024B0
:1030D0000A941616170618060906089500240A947D
:1030E000121613061406050608950C9464180E941F
:1030F000CD18D8F3E894E0E0BB279F57F0F02AED15
:103100003FE049EC06C0EE0FBB0F661F771F881F1C
:1031100028F0B23A62077307840728F0B25A620BAC
:10312000730B840BE3959A9572F7803830F49A9577
:10313000BB0F661F771F881FD2F790480C946A193F
:10314000092E0394000C11F4882352F0BB0F40F4B5
:10315000BF2B11F460FF04C06F5F7F4F8F4F9F4FF5
:103160000895EF93E0FF07C0A2EA2AED3FE049ECA3
:103170005FEB0E94F6160E94A0180F90039401FCCA
:103180009058E4EEF0E00C94761957FD9058440FF7
:10319000551F59F05F3F71F04795880F97FB991FB6
:1031A00061F09F3F79F08795089512161306140673
:1031B000551FF2CF4695F1DF08C016161706180600
:1031C000991FF1CF86957105610508940895E894DB
:1031D000BB2766277727CB0197F908950E943A18F5
:1031E00008F48FEF08950E9406190C94A0180E940D
:1031F000671838F00E946E1820F0952311F00C9497
:103200005E180C94641811240C94E8180E94C518D8
:1032100070F3959FC1F3950F50E0551F629FF00129
:10322000729FBB27F00DB11D639FAA27F00DB11D42
:10323000AA1F649F6627B00DA11D661F829F2227CB
:10324000B00DA11D621F739FB00DA11D621F839F52
:10325000A00D611D221F749F3327A00D611D231F28
:10326000849F600D211D822F762F6A2F11249F5776
:1032700050409AF0F1F088234AF0EE0FFF1FBB1F79
:10328000661F771F881F91505040A9F79E3F510538
:1032900080F00C945E180C94E8185F3FE4F3983EBD
:1032A000D4F3869577956795B795F795E7959F5FE2
:1032B000C1F7FE2B880F911D9695879597F9089574
:1032C0009F930E9477180F9007FCEE5F0C94B11843
:1032D0009F3F31F0915020F4879577956795B7958A
:1032E000880F911D9695879597F908959F938F93D1
:1032F0007F936F93FF93EF939B01AC010E94F318B0
:10330000EF91FF910E948A192F913F914F915F9108
:103310000C94F318DF93CF931F930F93FF92EF92C8
:10332000DF927B018C01689406C0DA2EEF010E94C7
:103330000619FE01E894A591259135914591559185
:10334000A6F3EF010E94F616FE019701A801DA9498
:1033500069F7DF90EF90FF900F911F91CF91DF9170
:103360000895A1E21A2EAA1BBB1BFD010DC0AA1FC6
:10337000BB1FEE1FFF1FA217B307E407F50720F0DE
:10338000A21BB30BE40BF50B661F771F881F991F59
:103390001A9469F760957095809590959B01AC01A2
:1033A000BD01CF010895052E97FB1EF400940E94E5
:1033B000EA1957FD07D00E94B11907FC03D04EF45B
:1033C0000C94EA1950954095309521953F4F4F4FF9
:1033D0005F4F089590958095709561957F4F8F4FC1
:1033E0009F4F0895EE0FFF1F881F8BBF0790F69128
:1033F000E02D19942A193B094C095D096E097F09D2
:10340000800B910B0895F894FFCF323075000000C7
:10341000009302D0011602E002470225023902574A
:10342000656C636F6D6520746F20424B442D50684E
:103430006F656E69782065636F73797374656D006D
:063440000D0A007A0000F5
:020000040003F7
:10E000000D9489F10D94B2F10D94B2F10D94B2F129
:10E010000D94B2F10D94B2F10D94B2F10D94B2F1F0
:10E020000D94B2F10D94B2F10D94B2F10D94B2F1E0
:10E030000D94B2F10D94B2F10D94B2F10D94B2F1D0
:10E040000D94B2F10D94B2F10D94B2F10D94B2F1C0
:10E050000D94B2F10D94B2F10D94B2F10D94B2F1B0
:10E060000D94B2F10D94B2F10D94B2F10D94B2F1A0
:10E070000D94B2F10D94B2F10D94B2F10D94B2F190
:10E080000D94B2F10D94B2F10D94B2F10D94B2F180
:10E090000D94B2F10D94B2F10D94B2F10D94B2F170
:10E0A0000D94B2F10D94B2F10D94B2F10D94B2F160
:10E0B0000D94B2F10D94B2F10D94B2F10D94B2F150
:10E0C0000D94B2F10D94B2F10D94B2F10D94B2F140
:10E0D0000D94B2F10D94B2F10D94B2F10D94B2F130
:10E0E0000D94B2F141546D656761323536300041AF
:10E0F000726475696E6F206578706C6F72657220DE
:10E1000073746B3530305632206279204D4C530099
:10E11000426F6F746C6F616465723E004875683F52
:10E1200000436F6D70696C6564206F6E203D200048
:10E130004350552054797065202020203D20005FF9
:10E140005F4156525F415243485F5F3D2000415658
:10E1500052204C696243205665723D20004743437C
:10E160002056657273696F6E203D20004350552024
:10E1700049442020202020203D20004C6F7720663D
:10E18000757365202020203D20004869676820665F
:10E190007573652020203D200045787420667573D6
:10E1A00065202020203D20004C6F636B2066757336
:10E1B000652020203D20004D617220203720323024
:10E1C000313300312E362E3800342E332E350056A2
:10E1D00023202020414444522020206F7020636F70
:10E1E00064652020202020696E73747275637469E1
:10E1F0006F6E2061646472202020496E74657272B3
:10E20000757074006E6F20766563746F7200726A49
:10E210006D702020006A6D70200057686174207056
:10E220006F72743A00506F7274206E6F7420737541
:10E2300070706F72746564004D7573742062652030
:10E2400061206C6574746572002000577269747483
:10E25000696E672045450052656164696E672045B7
:10E26000450045452065727220636E743D00504F35
:10E27000525400303D5A65726F2061646472003FF1
:10E280003D43505520737461747300403D454550C3
:10E29000524F4D207465737400423D426C696E6B41
:10E2A000204C454400453D44756D70204545505215
:10E2B0004F4D00463D44756D7020464C415348001B
:10E2C000483D48656C70004C3D4C69737420492F83
:10E2D0004F20506F72747300513D51756974005234
:10E2E0003D44756D702052414D00563D73686F7707
:10E2F00020696E7465727275707420566563746FF0
:10E30000727300593D506F727420626C696E6B00BD
:10E310002A0011241FBECFEFD1E2DEBFCDBF01E046
:10E320000CBF12E0A0E0B2E0EEE1FDEF03E00BBFB6
:10E3300002C007900D92A030B107D9F712E0A0E01B
:10E34000B2E001C01D92AE30B107E1F70F9460F367
:10E350000D948DFE01E20EBF0FEF0DBF11241FBE05
:10E360000D9460F30D9400F020E030E040ED57E0B4
:10E3700005C0FA013197F1F72F5F3F4F2817390792
:10E38000C0F308959C01260F311DC901A0E0B0E043
:10E390002F5F3F4FABBFFC018791882361F08093D3
:10E3A000C6008091C00086FFFCCF8091C0008064D1
:10E3B0008093C000EACF08958DE08093C6008091DD
:10E3C000C00086FFFCCF8091C00080648093C000B5
:10E3D0008AE08093C6008091C00086FFFCCF8091C8
:10E3E000C00080648093C00008950F94C2F10F9420
:10E3F000DCF10895FC019081992359F09093C600B7
:10E400008091C00086FFFCCF8091C0008064809323
:10E41000C0003196992379F70895282F982F929567
:10E420009F70892F805D8A3308F0895F8093C600D2
:10E430008091C00086FFFCCF8091C00080648093F3
:10E44000C000822F8F70982F905D9A3308F0995FEB
:10E450009093C6008091C00086FFFCCF8091C000E1
:10E4600080648093C00008959C01FB01853691056E
:10E470001CF46330710594F0C90164E670E00F94F8
:10E480002EFE605D7F4F6093C6008091C00086FFC6
:10E49000FCCF8091C00080648093C0002B30310598
:10E4A00014F43297B4F0C90164E670E00F942EFEC4
:10E4B0006AE070E00F942EFE605D7F4F6093C600AF
:10E4C0008091C00086FFFCCF8091C0008064809363
:10E4D000C000C9016AE070E00F942EFEC0968093E0
:10E4E000C6008091C00086FFFCCF8091C000806490
:10E4F0008093C00008951F93182F8EE692EE60E07F
:10E500000F94C2F11093C6008091C00086FFFCCF2B
:10E510008091C00080648093C0000F94DCF11F9153
:10E5200008952F923F924F925F926F927F928F92B7
:10E530009F92AF92BF92CF92DF92EF92FF920F9392
:10E540001F93DF93CF93CDB7DEB762970FB6F894E2
:10E55000DEBF0FBECDBF382E622ECA01DB015C01CB
:10E560006D01772420E2222E2E010894411C511CBB
:10E570008BC081E0A81680E0B80681E0C80680E084
:10E58000D80628F0C601AA27BB270F940DF2BB2797
:10E59000AD2D9C2D8B2D0F940DF28A2D0F940DF225
:10E5A0002092C6008091C00086FFFCCF8091C00001
:10E5B00080648093C0009DE29093C6008091C0006B
:10E5C00086FFFCCF8091C00080648093C0002092C1
:10E5D000C6008091C00086FFFCCF8091C00080649F
:10E5E0008093C00019828601750188249924A1E0D6
:10E5F0003A1651F03A1620F0B2E03B1661F409C029
:10E600000BBFF701779007C0C7010F9477FE782EF4
:10E6100002C0F7017080872D0F940DF22092C60082
:10E620008091C00086FFFCCF8091C0008064809301
:10E63000C000872D8052F401EF70F0708F3520F408
:10E64000E40DF51D708204C0E40DF51D8EE280839B
:10E650000894E11CF11C011D111D0894811C911CE2
:10E6600090E18916910409F0C2CF80E190E0A0E02A
:10E67000B0E0A80EB91ECA1EDB1E198AC2010F9493
:10E68000FAF10F94DCF16A94662009F072CF629679
:10E690000FB6F894DEBF0FBECDBFCF91DF911F91B3
:10E6A0000F91FF90EF90DF90CF90BF90AF909F9031
:10E6B0008F907F906F905F904F903F902F90089534
:10E6C0002F923F924F925F926F927F928F929F9282
:10E6D000AF92BF92CF92DF92EF92FF920F931F9370
:10E6E000DF93CF93CDB7DEB7CD53D1400FB6F894BB
:10E6F000DEBF0FBECDBF01E20EBF0FEF0DBF94B75F
:10E70000F894A89514BE80916000886180936000A1
:10E7100010926000789493FF05C0E0910002F091A0
:10E7200001021995279A2F9A8091C00082608093E8
:10E73000C00080E18093C40088E18093C1000000A4
:10E74000EE24FF24870144E0A42EB12CCC24DD2448
:10E7500024C0C5010197F1F70894E11CF11C011DCB
:10E76000111D21E2E2162EE4F20620E0020720E06D
:10E77000120718F031E0C32ED12CC801B70127ECE5
:10E780003BE140E050E00F9441FE611571058105C9
:10E79000910519F485B1805885B98091C00087FD35
:10E7A00003C0C114D104A9F2A6014F5F5F4FC25E3E
:10E7B000DE4F59834883CE51D140C25EDE4F8881FF
:10E7C0009981CE51D140019711F00D9410FEC05D9A
:10E7D000DE4F19821882C053D14060E0C15DDE4F28
:10E7E0001882CF52D14088249924C35DDE4F19820C
:10E7F0001882CD52D140C05EDE4F188219821A8233
:10E800001B82C052D140CE5CDE4F188219821A8220
:10E810001B82C253D140EE24FF2487010BBFF701B6
:10E8200007911691C45CDE4F19830883CC53D14005
:10E830000D940BFEC25EDE4F28813981CE51D1404E
:10E840002130310509F52091C600C25EDE4F1982E4
:10E850001882CE51D14022C02F5F3F4F4F4F5F4FA4
:10E86000213082E138078AE7480780E0580780F0C6
:10E87000C45CDE4FE881F981CC53D140EF5FFF4F9C
:10E8800019F0EE27FF27099420E030E040E050E047
:10E890008091C00087FFE0CF2091C600C35DDE4FAE
:10E8A00048815981CD52D1404F5F5F4FC35DDE4FEC
:10E8B00059834883CD52D140213209F063C64A3092
:10E8C000510508F05FC60894811C911C53E0851621
:10E8D000910409F059C600E010E018C081E280936D
:10E8E000C6008091C00086FFFCCF8091C00080648C
:10E8F0008093C0002F5F3F4F2931310579F70F9486
:10E90000DCF10F5F1F4F0530110519F020E030E0FA
:10E91000E5CF10920A0210920B0210920C02109294
:10E920000D02109206021092070210920802109235
:10E930000902109202021092030210920402109235
:10E9400005028FEE90EE60E00F94F5F180E191EE1C
:10E9500060E00F94C2F18091C00087FFFCCF9091DE
:10E96000C600903608F09F759032B8F09093C600BC
:10E970008091C00086FFFCCF8091C00080648093AE
:10E98000C000A0E2A093C6008091C00086FFFCCF2B
:10E990008091C00080648093C000983409F4D7C18E
:10E9A0009934B8F4923409F459C1933458F490333B
:10E9B00019F1903308F4E3C59F33A1F1903409F0C5
:10E9C000DEC5BDC0953409F470C1963409F0D7C5D1
:10E9D00098C1923509F42BC2933538F49C3409F46C
:10E9E000F5C1913509F0CBC518C2963509F445C279
:10E9F000993509F0C4C567C483E792EE62E00F94CD
:10EA0000F5F110920602109207021092080210927D
:10EA1000090210920A0210920B0210920C0210923C
:10EA20000D0213C18FE792EE62E00F94F5F18FEEC5
:10EA300090EE60E00F94F5F181E291EE60E00F94CA
:10EA4000C2F187EB91EE60E00F94F5F180E391EE77
:10EA500060E00F94C2F184EE90EE60E00F94F5F167
:10EA60008FE391EE60E00F94C2F186E090E061E008
:10EA700070E00F9434F20F94DCF18DE591EE60E0DC
:10EA80000F94C2F189EC91EE60E00F94F5F18EE401
:10EA900091EE60E00F94C2F183EC91EE60E00F9490
:10EAA000F5F18CE691EE60E00F94C2F18EE10F94E7
:10EAB0000DF288E90F940DF281E00F940DF20F949E
:10EAC000DCF18BE791EE60E00F94C2F119E0E0E039
:10EAD000F0E010935700E4918E2F0F940DF20F94F5
:10EAE000DCF18AE891EE60E00F94C2F1E3E0F0E03F
:10EAF00010935700E4918E2F0F940DF20F94DCF1D8
:10EB000089E991EE60E00F94C2F1E2E0F0E0109349
:10EB10005700E4918E2F0F940DF20F94DCF188EAE8
:10EB200091EE60E00F94C2F1E1E0F0E01093570045
:10EB30001491812F0F940DF20F94DCF107CF8BE825
:10EB400092EE62E00F94F5F18BE492EE60E00F94A8
:10EB5000F5F10F94DCF100E010E019C0C8016F2D51
:10EB60000F947FFEFF2031F489E492EE60E00F9471
:10EB7000C2F10BC0F092C6008091C00086FFFCCFAE
:10EB80008091C00080648093C0000F5F1F4FC80158
:10EB900081519F41A0E0B0E0ABBFFC01F790BAE229
:10EBA000FB1621F0E2E000301E07C1F60F94DCF105
:10EBB0000F94DCF187E592EE60E00F94F5F10F948D
:10EBC000DCF1CC24DD2400E010E01EC0C8010F946D
:10EBD00077FEF82E882331F489E492EE60E00F94FA
:10EBE000C2F10BC08093C6008091C00086FFFCCFAD
:10EBF0008091C00080648093C000FE1419F00894D6
:10EC0000C11CD11C0F5F1F4FC80181519F41A0E063
:10EC1000B0E0ABBFFC01E790FAE2EF1621F022E092
:10EC20000030120799F60F94DCF10F94DCF182E6C4
:10EC300092EE60E00F94C2F1C60161E070E00F94C3
:10EC400034F20F94DCF10F94DCF110920202109276
:10EC50000302109204021092050278CE89E992EE26
:10EC600062E00F94F5F1279A2F9A16C02F9880E052
:10EC700090E0E0EDF7E03197F1F7019684369105E9
:10EC8000C1F72F9A80E090E0E0EDF7E03197F1F7DF
:10EC9000019684369105C1F78091C00087FFE6CFC9
:10ECA0008091C00087FFFCCF64C485EA92EE62E0E9
:10ECB0000F94F5F140910202509103026091040219
:10ECC0007091050281E020E10F9491F2809102029F
:10ECD00090910302A0910402B091050280509F4FD1
:10ECE000AF4FBF4F8093020290930302A0930402A0
:10ECF000B093050280509041A040B04008F426CE69
:10ED0000A4CF83EB92EE62E00F94F5F140910602FE
:10ED100050910702609108027091090280E020E1A1
:10ED20000F9491F28091060290910702A09108023F
:10ED3000B091090280509F4FAF4FBF4F80930602A2
:10ED400090930702A0930802B0930902FFCD80ECD4
:10ED500092EE62E00F94F5F183E792EE60E00F949B
:10ED6000F5F18FE792EE60E00F94F5F18BE892EE0B
:10ED700060E00F94F5F189E992EE60E00F94F5F10F
:10ED800085EA92EE60E00F94F5F183EB92EE60E09D
:10ED90000F94F5F180EC92EE60E00F94F5F187ECC2
:10EDA00092EE60E00F94F5F188ED92EE60E00F9442
:10EDB000F5F18FED92EE60E00F94F5F18AEE92EEB0
:10EDC00060E00F94F5F183E093EEBDCD87EC92EE19
:10EDD00062E00F94F5F181E40F947BF282E40F94EA
:10EDE0007BF283E40F947BF284E40F947BF285E45E
:10EDF0000F947BF286E40F947BF287E40F947BF20E
:10EE000088E40F947BF28AE40F947BF28BE40F94F6
:10EE10007BF28CE40F947BF299CD88ED92EE62E068
:10EE20000F94F5F1772473948824992409C48FED05
:10EE300092EE62E00F94F5F140910A0250910B02BC
:10EE400060910C0270910D0282E020E10F9491F22A
:10EE500080910A0290910B02A0910C02B0910D02D8
:10EE600080509F4FAF4FBF4F80930A0290930B0289
:10EE7000A0930C02B0930D0269CD8AEE92EE62E08F
:10EE80000F94F5F184EE90EE60E00F94F5F18FECC5
:10EE900091EE60E00F94F5F1662477244301CC5D98
:10EEA000DE4F19821882C452D140D401C301B695F5
:10EEB000A79597958795CA5DDE4F88839983AA8326
:10EEC000BB83C652D140CC5DDE4FA881B981C4520C
:10EED000D1401196CC5DDE4FB983A883C452D14096
:10EEE000CD0162E070E00F9434F2B0E2B093C6005E
:10EEF0008091C00086FFFCCF8091C0008064809329
:10EF0000C000EDE2E093C6008091C00086FFFCCF18
:10EF10008091C00080648093C000F0E2F093C6004E
:10EF20008091C00086FFFCCF8091C00080648093F8
:10EF3000C000CA5DDE4FE880F9800A811B81C6529D
:10EF4000D140BB27A12F902F8F2D0F940DF2CA5DBA
:10EF5000DE4F8881C652D1400F940DF2B0E2FB2EF5
:10EF6000F092C6008091C00086FFFCCF8091C00067
:10EF700080648093C0000DE30093C6008091C000C0
:10EF800086FFFCCF8091C00080648093C00010E2B7
:10EF90001093C6008091C00086FFFCCF8091C00016
:10EFA00080648093C0008BBEF3012791C65DDE4F65
:10EFB0002883CA52D140A22EBB24CC24DD2408943D
:10EFC000611C711C811C911C8BBEF3018791282E42
:10EFD0003324442455240894611C711C811C911C09
:10EFE0008BBEF3013791C55DDE4F3883CB52D140E4
:10EFF0000894611C711C811C911C8BBEF30147910C
:10F00000C45DDE4F4883CC52D140ADEFEA2EAFEF66
:10F01000FA2EAFEF0A2FAFEF1A2F6E0C7F1C801E57
:10F02000911E142D032DF22CEE24EA0CFB1C0C1D5A
:10F030001D1D0F940DF220E22093C6008091C000A8
:10F0400086FFFCCF8091C00080648093C000C65DC5
:10F05000DE4F8881CA52D1400F940DF230E23093D6
:10F06000C6008091C00086FFFCCF8091C000806404
:10F070008093C000C45DDE4F8881CC52D1400F9494
:10F080000DF240E24093C6008091C00086FFFCCFA5
:10F090008091C00080648093C000C55DDE4F888190
:10F0A000CB52D1400F940DF250E25093C6008091A4
:10F0B000C00086FFFCCF8091C00080648093C000B8
:10F0C0008FEFE8168FEFF80680E0080780E018075A
:10F0D00031F484E092EE60E00F94C2F1DFC0D80119
:10F0E000C7018070907CA070B0708050904CA040A0
:10F0F000B040D1F52FEF3FE340E050E0E222F322B1
:10F1000004231523CA5DDE4FA880B980CA80DB8046
:10F11000C652D140AE0CBF1CC01ED11EAA0CBB1CD7
:10F12000CC1CDD1C8EE092EE60E00F94C2F1BB2798
:10F13000A12F902F8F2D0F940DF28E2D0F940DF285
:10F1400030E23093C6008091C00086FFFCCF8091F2
:10F15000C00080648093C0004EE34093C60080915D
:10F16000C00086FFFCCF87C08EE09EEFA0E0B0E03D
:10F17000E822F9220A231B239CE0E91694E9F90608
:10F1800090E0090790E0190709F088C0C45DDE4FE0
:10F19000A881CC52D140EA2EFF2400E010E0102FCD
:10F1A0000F2DFE2CEE24C55DDE4FB881CB52D14031
:10F1B000EB0EF11C011D111DD601C501817090706F
:10F1C000A070B070DC0199278827E80EF91E0A1F8D
:10F1D0001B1F20EF30E040E050E0A222B322C42207
:10F1E000D52241E1AA0CBB1CCC1CDD1C4A95D1F7F1
:10F1F000EA0CFB1C0C1D1D1D81E090E0A0E0B0E0BE
:10F20000282239224A225B2235E1220C331C441C7D
:10F21000551C3A95D1F7E20CF31C041D151D57013E
:10F220006801AA0CBB1CCC1CDD1C85E192EE60E0E1
:10F230000F94C2F1C801AA27BB270F940DF2BB2778
:10F24000A12F902F8F2D0F940DF28E2D0F940DF274
:10F2500090E29093C6008091C00086FFFCCF809121
:10F26000C00080648093C000AEE3A093C60080918C
:10F27000C00086FFFCCF8091C00080648093C000F6
:10F28000C601AA27BB270F940DF2BB27AD2D9C2DDD
:10F290008B2D0F940DF28A2D0F940DF20F94DCF14B
:10F2A000CC5DDE4FE881F981C452D140F99709F471
:10F2B0004DCBF4E0EF2EF12C012D112D6E0C7F1CA7
:10F2C000801E911EF2CD83E093EE62E00F94F5F183
:10F2D0008AE192EE60E00F94C2F18091C00087FF56
:10F2E000FCCF1091C6001F751093C6008091C0001E
:10F2F00086FFFCCF8091C00080648093C0000F9493
:10F30000DCF1812F81548A3108F036C1163409F4BA
:10F3100095C0173490F4133409F44EC0143430F40B
:10F320001134F1F0123409F01DC130C0143409F465
:10F3300059C0153409F016C16BC01A3409F4C4C0A1
:10F340001B3438F4173409F48FC0183409F00AC19B
:10F35000A1C01B3409F4D2C01C3409F003C1E8C0B9
:10F360008FEF81B90DC082B1809582B980E090E0C5
:10F37000E0EDF7E03197F1F70196883C9105C1F790
:10F380008091C00087FFEFCF12B8EFC08FEF84B934
:10F390000DC085B1809585B980E090E0E0EDF7E0A3
:10F3A0003197F1F70196883C9105C1F78091C00033
:10F3B00087FFEFCF15B8D9C08FEF87B90DC088B1DF
:10F3C000809588B980E090E0E0EDF7E03197F1F7C3
:10F3D0000196883C9105C1F78091C00087FFEFCF6F
:10F3E00018B8C3C08FEF8AB90DC08BB180958BB9A7
:10F3F00080E090E0E0EDF7E03197F1F70196883C8E
:10F400009105C1F78091C00087FFEFCF1BB8ADC059
:10F410008FEF8DB90DC08EB180958EB980E090E0F0
:10F42000E0EDF7E03197F1F70196883C9105C1F7DF
:10F430008091C00087FFEFCF1EB897C08FEF80BBD1
:10F440000DC081B3809581BB80E090E0E0EDF7E0F6
:10F450003197F1F70196883C9105C1F78091C00082
:10F4600087FFEFCF11BA81C08FEF83BB0DC084B38C
:10F47000809584BB80E090E0E0EDF7E03197F1F714
:10F480000196883C9105C1F78091C00087FFEFCFBE
:10F4900014BA6BC08FEF809301010FC080910201FD
:10F4A00080958093020180E090E0E0EDF7E03197F5
:10F4B000F1F70196883C9105C1F78091C00087FF64
:10F4C000EDCF1092020151C08FEF809304010FC065
:10F4D0008091050180958093050180E090E0E0ED4A
:10F4E000F7E03197F1F70196883C9105C1F78091DB
:10F4F000C00087FFEDCF1092050137C08FEF8093DA
:10F5000007010FC08091080180958093080180E079
:10F5100090E0E0EDF7E03197F1F70196883C910536
:10F52000C1F78091C00087FFEDCF109208011DC088
:10F530008FEF80930A010FC080910B01809580931B
:10F540000B0180E090E0E0EDF7E03197F1F70196F4
:10F55000883C9105C1F78091C00087FFEDCF1092E4
:10F560000B0103C085E292EEEEC98091C00087FFD7
:10F57000FCCF8091C600EAC988E392EEE4C98CE131
:10F5800091EEE1C988249924933011F1943028F444
:10F59000913089F09230B8F408C0953061F195301F
:10F5A000F0F0963009F048C043C02B3109F042C951
:10F5B00091E06BE13FC96227C15DDE4F2883CF52E6
:10F5C000D14092E037C9B22FA0E0622793E032C960
:10F5D000822F90E0A82BB92B622794E02BC92E3004
:10F5E00009F039C3622795E0C05DDE4F19821882A9
:10F5F000C053D1401FC9E1E0F0E0EC0FFD1FC05D3A
:10F60000DE4F08811981C053D140E00FF11F2083E4
:10F610000F5F1F4FC05DDE4F19830883C053D14079
:10F6200062270A171B0709F005C9D80196E002C92D
:10F63000261709F010C303C0973009F0FBC87724E0
:10F640009981933109F412C19431C8F4963009F4C8
:10F65000D8C0973050F4923009F406C1933009F4C1
:10F660006DC0913009F059C253C0913109F477C08F
:10F67000923108F0BBC0903109F04FC2F5C098310B
:10F6800009F487C0993150F4953109F4EFC09531F0
:10F6900008F4C6C1963109F040C2C2C19A3109F4DA
:10F6A0006CC09A3108F491C09B3109F45BC09D3164
:10F6B00009F033C29D81903359F48F81882311F46E
:10F6C0009EE11CC0813011F091E018C098E916C08D
:10F6D000892F807591F0903539F4E0E0F0E089E011
:10F6E0008093570094910AC0983539F4E3E0F0E034
:10F6F00089E080935700949101C090E01A821B82A8
:10F700008D818C831D829E831F8227E030E009C299
:10F710001A8288E08B8381E48C8386E58D8382E581
:10F720008E8389E48F8383E5888780E589878FE5E9
:10F730008A8782E38B872BE030E0F3C18A818139AD
:10F7400041F0823941F0803911F48FE005C080E04A
:10F7500003C082E001C08AE01A828B8344C0772410
:10F76000739482C08D81882311F48EE12CC0813086
:10F7700011F081E028C088E926C01A82E1E0F0E0BB
:10F7800089E08093570084918B831C8224E030E0D1
:10F79000C8C18B81803589F48C81883039F4E2E0EE
:10F7A000F0E089E08093570084910DC0E0E0F0E044
:10F7B00089E080935700849106C0E3E0F0E089E09F
:10F7C0008093570084911A82DFCF8D81836C99E0FA
:10F7D000E1E0F0E0082E90935700E89507B600FCB2
:10F7E000FDCF1A821B8223E030E09BC180EC8A832C
:10F7F000CE5CDE4F188219821A821B82C253D1401E
:10F800008EC18A8190E0A0E0B0E0582F44273327D2
:10F8100022278B8190E0A0E0B0E0DC0199278827C7
:10F82000282B392B4A2B5B2B8D8190E0A0E0B0E098
:10F83000282B392B4A2B5B2B8C8190E0A0E0B0E089
:10F84000BA2FA92F982F8827282B392B4A2B5B2BCF
:10F85000220F331F441F551FC05EDE4F288339839C
:10F860004A835B83C052D1401A8259C13A81C95C34
:10F87000DE4F3883C753D140CA5CDE4F1882C6536F
:10F88000D1408B81C82EDD24CA5CDE4F488159816E
:10F89000C653D140C42AD52A933109F082C0CE5C28
:10F8A000DE4F88819981AA81BB81C253D1408050AB
:10F8B000904CA340B04030F583E0CE5CDE4FE88052
:10F8C000F9800A811B81C253D140F70100935B008C
:10F8D00080935700E89507B600FCFDCFCE5CDE4F65
:10F8E000088119812A813B81C253D14000501F4FAA
:10F8F0002F4F3F4FCE5CDE4F088319832A833B8313
:10F90000C253D140C05EDE4F488159816A817B81FC
:10F91000C052D140DE011B9631E08C9111962C91A2
:10F9200011971296C75CDE4F2883C953D140C85C3B
:10F93000DE4F1882C853D14090E0C85CDE4FE881AA
:10F94000F981C853D1408E2B9F2B0C01FA01609393
:10F950005B0030935700E89511244E5F5F4F6F4F67
:10F960007F4F0EEFE02E0FEFF02ECE0CDF1CC114F8
:10F97000D10499F685E0C05EDE4F088119812A81A5
:10F980003B81C052D140F80120935B008093570027
:10F99000E89507B600FCFDCF81E180935700E8951C
:10F9A00035C0C05EDE4F88819981AA81BB81C0527B
:10F9B000D140B695A795979587957C018601ABE0D8
:10F9C000AA2EB12CAC0EBD1E0BC0D5016D915D01F0
:10F9D000C7010F947FFE0894E11CF11C01501040F8
:10F9E0000115110591F7A60160E070E0440F551F65
:10F9F000661F771FC05EDE4FE880F9800A811B8199
:10FA0000C052D1404E0D5F1D601F711F1A82C05E33
:10FA1000DE4F488359836A837B83C052D1407FC0C5
:10FA2000FA80C55CDE4FF882CB53D140C65CDE4F16
:10FA30001882CA53D1408B81C82EDD24C65CDE4FAC
:10FA400008811981CA53D140C02AD12A1A828981DA
:10FA5000BE016D5F7F4F843121F59601C05EDE4FA0
:10FA6000E880F9800A811B81C052D1400BBFF701A9
:10FA700087919691DB018C9311969C936E5F7F4FDB
:10FA8000D801C7010296A11DB11DC05EDE4F88835B
:10FA90009983AA83BB83C052D14022503040F1F6F3
:10FAA00036C0C05EDE4F288139814A815B81C052F9
:10FAB000D1400894C108D108760100E010E0089414
:10FAC000C11CD11C0894E11CF11C011D111DE20E8A
:10FAD000F31E041F151F21BDBB27A52F942F832FB5
:10FAE00082BD2F5F3F4F4F4F5F4FF89A80B5DB01CC
:10FAF0008D93BD012E153F054007510761F7C05E8C
:10FB0000DE4F288339834A835B83C052D1409601FC
:10FB10002D5F3F4FFB01108204C080EC8A8322E0FE
:10FB200030E08BE18093C6008091C00086FFFCCF5F
:10FB30008091C00080648093C000C15DDE4FF88179
:10FB4000CF52D140F093C6008091C00086FFFCCF19
:10FB50008091C00080648093C000432F3093C60022
:10FB60008091C00086FFFCCF8091C00080648093AC
:10FB7000C000922F2093C6008091C00086FFFCCF6A
:10FB80008091C00080648093C0008EE08093C600A6
:10FB90008091C00086FFFCCF8091C000806480937C
:10FBA000C00065E1C15DDE4FE880CF52D1406E25D7
:10FBB00069276427FE01319610C090819093C6009A
:10FBC0008091C00086FFFCCF31968091C000806498
:10FBD0008093C0006927215030402115310569F715
:10FBE0006093C6008091C00086FFFCCF8091C0006A
:10FBF00080648093C00085B1805885B9772081F4F6
:10FC0000C15DDE4F0881CF52D1400F5FC15DDE4F35
:10FC10000883CF52D14090E0A0E0B0E00D941AF4F8
:10FC200027982F9880E090E020ED37E0F901319798
:10FC3000F1F7019684369105C9F700008091C00064
:10FC40008D7F8093C00081E180935700E895EE2777
:10FC5000FF270994FFCF90E00D941AF497FB092E2B
:10FC600007260AD077FD04D02ED006D000201AF443
:10FC7000709561957F4F0895F6F7909581959F4F08
:10FC80000895A1E21A2EAA1BBB1BFD010DC0AA1FDD
:10FC9000BB1FEE1FFF1FA217B307E407F50720F0F5
:10FCA000A21BB30BE40BF50B661F771F881F991F70
:10FCB0001A9469F760957095809590959B01AC01B9
:10FCC000BD01CF010895AA1BBB1B51E107C0AA1FAC
:10FCD000BB1FA617B70710F0A61BB70B881F991FED
:10FCE0005A95A9F780959095BC01CD010895F99991
:10FCF000FECF92BD81BDF89A992780B50895262F31
:10FD0000F999FECF1FBA92BD81BD20BD0FB6F89400
:0EFD1000FA9AF99A0FBE01960895F894FFCF63
:00000001FF
